{
  "_format": "hh-sol-artifact-1",
  "contractName": "TriggerNFT",
  "sourceName": "contracts/TriggerNFT.sol",
  "abi": [
    {
      "inputs": [],
      "stateMutability": "nonpayable",
      "type": "constructor"
    },
    {
      "anonymous": false,
      "inputs": [
        {
          "indexed": true,
          "internalType": "address",
          "name": "owner",
          "type": "address"
        },
        {
          "indexed": true,
          "internalType": "address",
          "name": "approved",
          "type": "address"
        },
        {
          "indexed": true,
          "internalType": "uint256",
          "name": "tokenId",
          "type": "uint256"
        }
      ],
      "name": "Approval",
      "type": "event"
    },
    {
      "anonymous": false,
      "inputs": [
        {
          "indexed": true,
          "internalType": "address",
          "name": "owner",
          "type": "address"
        },
        {
          "indexed": true,
          "internalType": "address",
          "name": "operator",
          "type": "address"
        },
        {
          "indexed": false,
          "internalType": "bool",
          "name": "approved",
          "type": "bool"
        }
      ],
      "name": "ApprovalForAll",
      "type": "event"
    },
    {
      "anonymous": false,
      "inputs": [
        {
          "indexed": true,
          "internalType": "address",
          "name": "from",
          "type": "address"
        },
        {
          "indexed": true,
          "internalType": "address",
          "name": "to",
          "type": "address"
        },
        {
          "indexed": true,
          "internalType": "uint256",
          "name": "tokenId",
          "type": "uint256"
        }
      ],
      "name": "Transfer",
      "type": "event"
    },
    {
      "inputs": [
        {
          "internalType": "address",
          "name": "to",
          "type": "address"
        },
        {
          "internalType": "uint256",
          "name": "tokenId",
          "type": "uint256"
        }
      ],
      "name": "approve",
      "outputs": [],
      "stateMutability": "nonpayable",
      "type": "function"
    },
    {
      "inputs": [
        {
          "internalType": "address",
          "name": "owner",
          "type": "address"
        }
      ],
      "name": "balanceOf",
      "outputs": [
        {
          "internalType": "uint256",
          "name": "",
          "type": "uint256"
        }
      ],
      "stateMutability": "view",
      "type": "function"
    },
    {
      "inputs": [
        {
          "internalType": "uint256",
          "name": "tokenId",
          "type": "uint256"
        }
      ],
      "name": "getApproved",
      "outputs": [
        {
          "internalType": "address",
          "name": "",
          "type": "address"
        }
      ],
      "stateMutability": "view",
      "type": "function"
    },
    {
      "inputs": [
        {
          "internalType": "uint256",
          "name": "_tokenId",
          "type": "uint256"
        }
      ],
      "name": "getNFTdetails",
      "outputs": [
        {
          "internalType": "string",
          "name": "",
          "type": "string"
        },
        {
          "internalType": "uint256",
          "name": "",
          "type": "uint256"
        },
        {
          "internalType": "address",
          "name": "",
          "type": "address"
        },
        {
          "internalType": "address",
          "name": "",
          "type": "address"
        },
        {
          "internalType": "address",
          "name": "",
          "type": "address"
        },
        {
          "internalType": "bool",
          "name": "",
          "type": "bool"
        },
        {
          "internalType": "uint256",
          "name": "",
          "type": "uint256"
        }
      ],
      "stateMutability": "view",
      "type": "function"
    },
    {
      "inputs": [
        {
          "internalType": "address",
          "name": "owner",
          "type": "address"
        },
        {
          "internalType": "address",
          "name": "operator",
          "type": "address"
        }
      ],
      "name": "isApprovedForAll",
      "outputs": [
        {
          "internalType": "bool",
          "name": "",
          "type": "bool"
        }
      ],
      "stateMutability": "view",
      "type": "function"
    },
    {
      "inputs": [
        {
          "internalType": "string",
          "name": "tokenURI",
          "type": "string"
        },
        {
          "internalType": "uint256",
          "name": "_portalId",
          "type": "uint256"
        }
      ],
      "name": "mintToken",
      "outputs": [
        {
          "internalType": "uint256",
          "name": "",
          "type": "uint256"
        }
      ],
      "stateMutability": "nonpayable",
      "type": "function"
    },
    {
      "inputs": [],
      "name": "name",
      "outputs": [
        {
          "internalType": "string",
          "name": "",
          "type": "string"
        }
      ],
      "stateMutability": "view",
      "type": "function"
    },
    {
      "inputs": [
        {
          "internalType": "uint256",
          "name": "tokenId",
          "type": "uint256"
        }
      ],
      "name": "ownerOf",
      "outputs": [
        {
          "internalType": "address",
          "name": "",
          "type": "address"
        }
      ],
      "stateMutability": "view",
      "type": "function"
    },
    {
      "inputs": [
        {
          "internalType": "address",
          "name": "from",
          "type": "address"
        },
        {
          "internalType": "address",
          "name": "to",
          "type": "address"
        },
        {
          "internalType": "uint256",
          "name": "tokenId",
          "type": "uint256"
        }
      ],
      "name": "safeTransferFrom",
      "outputs": [],
      "stateMutability": "nonpayable",
      "type": "function"
    },
    {
      "inputs": [
        {
          "internalType": "address",
          "name": "from",
          "type": "address"
        },
        {
          "internalType": "address",
          "name": "to",
          "type": "address"
        },
        {
          "internalType": "uint256",
          "name": "tokenId",
          "type": "uint256"
        },
        {
          "internalType": "bytes",
          "name": "_data",
          "type": "bytes"
        }
      ],
      "name": "safeTransferFrom",
      "outputs": [],
      "stateMutability": "nonpayable",
      "type": "function"
    },
    {
      "inputs": [
        {
          "internalType": "address",
          "name": "operator",
          "type": "address"
        },
        {
          "internalType": "bool",
          "name": "approved",
          "type": "bool"
        }
      ],
      "name": "setApprovalForAll",
      "outputs": [],
      "stateMutability": "nonpayable",
      "type": "function"
    },
    {
      "inputs": [
        {
          "internalType": "bytes4",
          "name": "interfaceId",
          "type": "bytes4"
        }
      ],
      "name": "supportsInterface",
      "outputs": [
        {
          "internalType": "bool",
          "name": "",
          "type": "bool"
        }
      ],
      "stateMutability": "view",
      "type": "function"
    },
    {
      "inputs": [],
      "name": "symbol",
      "outputs": [
        {
          "internalType": "string",
          "name": "",
          "type": "string"
        }
      ],
      "stateMutability": "view",
      "type": "function"
    },
    {
      "inputs": [
        {
          "internalType": "uint256",
          "name": "_price",
          "type": "uint256"
        },
        {
          "internalType": "uint256",
          "name": "_tokenId",
          "type": "uint256"
        }
      ],
      "name": "toggleSale",
      "outputs": [],
      "stateMutability": "nonpayable",
      "type": "function"
    },
    {
      "inputs": [
        {
          "internalType": "uint256",
          "name": "tokenId",
          "type": "uint256"
        }
      ],
      "name": "tokenURI",
      "outputs": [
        {
          "internalType": "string",
          "name": "",
          "type": "string"
        }
      ],
      "stateMutability": "view",
      "type": "function"
    },
    {
      "inputs": [
        {
          "internalType": "address",
          "name": "from",
          "type": "address"
        },
        {
          "internalType": "address",
          "name": "to",
          "type": "address"
        },
        {
          "internalType": "uint256",
          "name": "tokenId",
          "type": "uint256"
        }
      ],
      "name": "transferFrom",
      "outputs": [],
      "stateMutability": "nonpayable",
      "type": "function"
    },
    {
      "inputs": [
        {
          "internalType": "uint256",
          "name": "_tokenId",
          "type": "uint256"
        }
      ],
      "name": "transferNFT",
      "outputs": [],
      "stateMutability": "nonpayable",
      "type": "function"
    },
    {
      "inputs": [
        {
          "internalType": "uint256",
          "name": "_price",
          "type": "uint256"
        },
        {
          "internalType": "uint256",
          "name": "_tokenId",
          "type": "uint256"
        }
      ],
      "name": "updateListingPrice",
      "outputs": [],
      "stateMutability": "nonpayable",
      "type": "function"
    }
  ],
  "bytecode": "0x60806040523480156200001157600080fd5b506040518060400160405280601481526020017f547269676765722050726f746f636f6c204e46540000000000000000000000008152506040518060400160405280600481526020017f4e54524700000000000000000000000000000000000000000000000000000000815250816000908051906020019062000096929190620000b8565b508060019080519060200190620000af929190620000b8565b505050620001cd565b828054620000c69062000168565b90600052602060002090601f016020900481019282620000ea576000855562000136565b82601f106200010557805160ff191683800117855562000136565b8280016001018555821562000136579182015b828111156200013557825182559160200191906001019062000118565b5b50905062000145919062000149565b5090565b5b80821115620001645760008160009055506001016200014a565b5090565b600060028204905060018216806200018157607f821691505b602082108114156200019857620001976200019e565b5b50919050565b7f4e487b7100000000000000000000000000000000000000000000000000000000600052602260045260246000fd5b61370980620001dd6000396000f3fe608060405234801561001057600080fd5b50600436106101165760003560e01c806370a08231116100a2578063ba9a35cd11610071578063ba9a35cd146102db578063c046372c14610311578063c460494314610341578063c87b56dd1461035d578063e985e9c51461038d57610116565b806370a082311461025557806395d89b4114610285578063a22cb465146102a3578063b88d4fde146102bf57610116565b806323b872dd116100e957806323b872dd146101b5578063249e10c5146101d157806342842e0e146101ed5780635c3c796d146102095780636352211e1461022557610116565b806301ffc9a71461011b57806306fdde031461014b578063081812fc14610169578063095ea7b314610199575b600080fd5b61013560048036038101906101309190612500565b6103bd565b6040516101429190612a22565b60405180910390f35b61015361049f565b6040516101609190612a3d565b60405180910390f35b610183600480360381019061017e91906125a6565b610531565b60405161019091906129bb565b60405180910390f35b6101b360048036038101906101ae91906124c4565b6105b6565b005b6101cf60048036038101906101ca91906123be565b6106ce565b005b6101eb60048036038101906101e691906125a6565b61072e565b005b610207600480360381019061020291906123be565b6108b4565b005b610223600480360381019061021e91906125cf565b6108d4565b005b61023f600480360381019061023a91906125a6565b610a57565b60405161024c91906129bb565b60405180910390f35b61026f600480360381019061026a9190612359565b610b09565b60405161027c9190612d55565b60405180910390f35b61028d610bc1565b60405161029a9190612a3d565b60405180910390f35b6102bd60048036038101906102b89190612488565b610c53565b005b6102d960048036038101906102d4919061240d565b610c69565b005b6102f560048036038101906102f091906125a6565b610ccb565b6040516103089796959493929190612a5f565b60405180910390f35b61032b60048036038101906103269190612552565b610f03565b6040516103389190612d55565b60405180910390f35b61035b600480360381019061035691906125cf565b611107565b005b610377600480360381019061037291906125a6565b611251565b6040516103849190612a3d565b60405180910390f35b6103a760048036038101906103a29190612382565b6113a3565b6040516103b49190612a22565b60405180910390f35b60007f80ac58cd000000000000000000000000000000000000000000000000000000007bffffffffffffffffffffffffffffffffffffffffffffffffffffffff1916827bffffffffffffffffffffffffffffffffffffffffffffffffffffffff1916148061048857507f5b5e139f000000000000000000000000000000000000000000000000000000007bffffffffffffffffffffffffffffffffffffffffffffffffffffffff1916827bffffffffffffffffffffffffffffffffffffffffffffffffffffffff1916145b80610498575061049782611437565b5b9050919050565b6060600080546104ae90612fab565b80601f01602080910402602001604051908101604052809291908181526020018280546104da90612fab565b80156105275780601f106104fc57610100808354040283529160200191610527565b820191906000526020600020905b81548152906001019060200180831161050a57829003601f168201915b5050505050905090565b600061053c826114a1565b61057b576040517f08c379a000000000000000000000000000000000000000000000000000000000815260040161057290612c95565b60405180910390fd5b6004600083815260200190815260200160002060009054906101000a900473ffffffffffffffffffffffffffffffffffffffff169050919050565b60006105c182610a57565b90508073ffffffffffffffffffffffffffffffffffffffff168373ffffffffffffffffffffffffffffffffffffffff161415610632576040517f08c379a000000000000000000000000000000000000000000000000000000000815260040161062990612cd5565b60405180910390fd5b8073ffffffffffffffffffffffffffffffffffffffff1661065161150d565b73ffffffffffffffffffffffffffffffffffffffff161480610680575061067f8161067a61150d565b6113a3565b5b6106bf576040517f08c379a00000000000000000000000000000000000000000000000000000000081526004016106b690612bd5565b60405180910390fd5b6106c98383611515565b505050565b6106df6106d961150d565b826115ce565b61071e576040517f08c379a000000000000000000000000000000000000000000000000000000000815260040161071590612cf5565b60405180910390fd5b6107298383836116ac565b505050565b60006008600083815260200190815260200160002060040160009054906101000a900473ffffffffffffffffffffffffffffffffffffffff1690506008600083815260200190815260200160002060050160149054906101000a900460ff166107cc576040517f08c379a00000000000000000000000000000000000000000000000000000000081526004016107c390612d15565b60405180910390fd5b6107d78133846116ac565b806008600084815260200190815260200160002060050160006101000a81548173ffffffffffffffffffffffffffffffffffffffff021916908373ffffffffffffffffffffffffffffffffffffffff160217905550336008600084815260200190815260200160002060040160006101000a81548173ffffffffffffffffffffffffffffffffffffffff021916908373ffffffffffffffffffffffffffffffffffffffff16021790555060006008600084815260200190815260200160002060050160146101000a81548160ff0219169083151502179055505050565b6108cf83838360405180602001604052806000815250610c69565b505050565b8060006108e082610a57565b90503373ffffffffffffffffffffffffffffffffffffffff168173ffffffffffffffffffffffffffffffffffffffff1614610950576040517f08c379a000000000000000000000000000000000000000000000000000000000815260040161094790612b55565b60405180910390fd5b60008411610993576040517f08c379a000000000000000000000000000000000000000000000000000000000815260040161098a90612d35565b60405180910390fd5b600015156008600085815260200190815260200160002060050160149054906101000a900460ff161515146109fd576040517f08c379a00000000000000000000000000000000000000000000000000000000081526004016109f490612ad5565b60405180910390fd5b60016008600085815260200190815260200160002060050160146101000a81548160ff021916908315150217905550836008600085815260200190815260200160002060060181905550610a513084611515565b50505050565b6000806002600084815260200190815260200160002060009054906101000a900473ffffffffffffffffffffffffffffffffffffffff169050600073ffffffffffffffffffffffffffffffffffffffff168173ffffffffffffffffffffffffffffffffffffffff161415610b00576040517f08c379a0000000000000000000000000000000000000000000000000000000008152600401610af790612c15565b60405180910390fd5b80915050919050565b60008073ffffffffffffffffffffffffffffffffffffffff168273ffffffffffffffffffffffffffffffffffffffff161415610b7a576040517f08c379a0000000000000000000000000000000000000000000000000000000008152600401610b7190612bf5565b60405180910390fd5b600360008373ffffffffffffffffffffffffffffffffffffffff1673ffffffffffffffffffffffffffffffffffffffff168152602001908152602001600020549050919050565b606060018054610bd090612fab565b80601f0160208091040260200160405190810160405280929190818152602001828054610bfc90612fab565b8015610c495780601f10610c1e57610100808354040283529160200191610c49565b820191906000526020600020905b815481529060010190602001808311610c2c57829003601f168201915b5050505050905090565b610c65610c5e61150d565b8383611913565b5050565b610c7a610c7461150d565b836115ce565b610cb9576040517f08c379a0000000000000000000000000000000000000000000000000000000008152600401610cb090612cf5565b60405180910390fd5b610cc584848484611a80565b50505050565b60606000806000806000806000600860008a8152602001908152602001600020604051806101000160405290816000820154815260200160018201548152602001600282018054610d1b90612fab565b80601f0160208091040260200160405190810160405280929190818152602001828054610d4790612fab565b8015610d945780601f10610d6957610100808354040283529160200191610d94565b820191906000526020600020905b815481529060010190602001808311610d7757829003601f168201915b505050505081526020016003820160009054906101000a900473ffffffffffffffffffffffffffffffffffffffff1673ffffffffffffffffffffffffffffffffffffffff1673ffffffffffffffffffffffffffffffffffffffff1681526020016004820160009054906101000a900473ffffffffffffffffffffffffffffffffffffffff1673ffffffffffffffffffffffffffffffffffffffff1673ffffffffffffffffffffffffffffffffffffffff1681526020016005820160009054906101000a900473ffffffffffffffffffffffffffffffffffffffff1673ffffffffffffffffffffffffffffffffffffffff1673ffffffffffffffffffffffffffffffffffffffff1681526020016005820160149054906101000a900460ff16151515158152602001600682015481525050905080604001518160200151826060015183608001518460a001518560c001518660e00151975097509750975097509750975050919395979092949650565b6000610f0f6007611adc565b6000610f1b6007611af2565b9050610f273382611b00565b610f318185611cda565b60006040518061010001604052808381526020018581526020018681526020013373ffffffffffffffffffffffffffffffffffffffff1681526020013373ffffffffffffffffffffffffffffffffffffffff1681526020013373ffffffffffffffffffffffffffffffffffffffff16815260200160001515815260200160008152509050806008600084815260200190815260200160002060008201518160000155602082015181600101556040820151816002019080519060200190610ff992919061217d565b5060608201518160030160006101000a81548173ffffffffffffffffffffffffffffffffffffffff021916908373ffffffffffffffffffffffffffffffffffffffff16021790555060808201518160040160006101000a81548173ffffffffffffffffffffffffffffffffffffffff021916908373ffffffffffffffffffffffffffffffffffffffff16021790555060a08201518160050160006101000a81548173ffffffffffffffffffffffffffffffffffffffff021916908373ffffffffffffffffffffffffffffffffffffffff16021790555060c08201518160050160146101000a81548160ff02191690831515021790555060e08201518160060155905050819250505092915050565b80600061111382610a57565b90503373ffffffffffffffffffffffffffffffffffffffff168173ffffffffffffffffffffffffffffffffffffffff1614611183576040517f08c379a000000000000000000000000000000000000000000000000000000000815260040161117a90612b55565b60405180910390fd5b600084116111c6576040517f08c379a00000000000000000000000000000000000000000000000000000000081526004016111bd90612d35565b60405180910390fd5b600115156008600085815260200190815260200160002060050160149054906101000a900460ff16151514611230576040517f08c379a000000000000000000000000000000000000000000000000000000000815260040161122790612d15565b60405180910390fd5b83600860008581526020019081526020016000206006018190555050505050565b606061125c826114a1565b61129b576040517f08c379a000000000000000000000000000000000000000000000000000000000815260040161129290612c75565b60405180910390fd5b60006006600084815260200190815260200160002080546112bb90612fab565b80601f01602080910402602001604051908101604052809291908181526020018280546112e790612fab565b80156113345780601f1061130957610100808354040283529160200191611334565b820191906000526020600020905b81548152906001019060200180831161131757829003601f168201915b505050505090506000611345611d4e565b905060008151141561135b57819250505061139e565b600082511115611390578082604051602001611378929190612997565b6040516020818303038152906040529250505061139e565b61139984611d65565b925050505b919050565b6000600560008473ffffffffffffffffffffffffffffffffffffffff1673ffffffffffffffffffffffffffffffffffffffff16815260200190815260200160002060008373ffffffffffffffffffffffffffffffffffffffff1673ffffffffffffffffffffffffffffffffffffffff16815260200190815260200160002060009054906101000a900460ff16905092915050565b60007f01ffc9a7000000000000000000000000000000000000000000000000000000007bffffffffffffffffffffffffffffffffffffffffffffffffffffffff1916827bffffffffffffffffffffffffffffffffffffffffffffffffffffffff1916149050919050565b60008073ffffffffffffffffffffffffffffffffffffffff166002600084815260200190815260200160002060009054906101000a900473ffffffffffffffffffffffffffffffffffffffff1673ffffffffffffffffffffffffffffffffffffffff1614159050919050565b600033905090565b816004600083815260200190815260200160002060006101000a81548173ffffffffffffffffffffffffffffffffffffffff021916908373ffffffffffffffffffffffffffffffffffffffff160217905550808273ffffffffffffffffffffffffffffffffffffffff1661158883610a57565b73ffffffffffffffffffffffffffffffffffffffff167f8c5be1e5ebec7d5bd14f71427d1e84f3dd0314c0f7b2291e5b200ac8c7c3b92560405160405180910390a45050565b60006115d9826114a1565b611618576040517f08c379a000000000000000000000000000000000000000000000000000000000815260040161160f90612bb5565b60405180910390fd5b600061162383610a57565b90508073ffffffffffffffffffffffffffffffffffffffff168473ffffffffffffffffffffffffffffffffffffffff16148061169257508373ffffffffffffffffffffffffffffffffffffffff1661167a84610531565b73ffffffffffffffffffffffffffffffffffffffff16145b806116a357506116a281856113a3565b5b91505092915050565b8273ffffffffffffffffffffffffffffffffffffffff166116cc82610a57565b73ffffffffffffffffffffffffffffffffffffffff1614611722576040517f08c379a000000000000000000000000000000000000000000000000000000000815260040161171990612b15565b60405180910390fd5b600073ffffffffffffffffffffffffffffffffffffffff168273ffffffffffffffffffffffffffffffffffffffff161415611792576040517f08c379a000000000000000000000000000000000000000000000000000000000815260040161178990612b75565b60405180910390fd5b61179d838383611e0c565b6117a8600082611515565b6001600360008573ffffffffffffffffffffffffffffffffffffffff1673ffffffffffffffffffffffffffffffffffffffff16815260200190815260200160002060008282546117f89190612ec1565b925050819055506001600360008473ffffffffffffffffffffffffffffffffffffffff1673ffffffffffffffffffffffffffffffffffffffff168152602001908152602001600020600082825461184f9190612e3a565b92505081905550816002600083815260200190815260200160002060006101000a81548173ffffffffffffffffffffffffffffffffffffffff021916908373ffffffffffffffffffffffffffffffffffffffff160217905550808273ffffffffffffffffffffffffffffffffffffffff168473ffffffffffffffffffffffffffffffffffffffff167fddf252ad1be2c89b69c2b068fc378daa952ba7f163c4a11628f55a4df523b3ef60405160405180910390a461190e838383611e11565b505050565b8173ffffffffffffffffffffffffffffffffffffffff168373ffffffffffffffffffffffffffffffffffffffff161415611982576040517f08c379a000000000000000000000000000000000000000000000000000000000815260040161197990612b95565b60405180910390fd5b80600560008573ffffffffffffffffffffffffffffffffffffffff1673ffffffffffffffffffffffffffffffffffffffff16815260200190815260200160002060008473ffffffffffffffffffffffffffffffffffffffff1673ffffffffffffffffffffffffffffffffffffffff16815260200190815260200160002060006101000a81548160ff0219169083151502179055508173ffffffffffffffffffffffffffffffffffffffff168373ffffffffffffffffffffffffffffffffffffffff167f17307eab39ab6107e8899845ad3d59bd9653f200f220920489ca2b5937696c3183604051611a739190612a22565b60405180910390a3505050565b611a8b8484846116ac565b611a9784848484611e16565b611ad6576040517f08c379a0000000000000000000000000000000000000000000000000000000008152600401611acd90612af5565b60405180910390fd5b50505050565b6001816000016000828254019250508190555050565b600081600001549050919050565b600073ffffffffffffffffffffffffffffffffffffffff168273ffffffffffffffffffffffffffffffffffffffff161415611b70576040517f08c379a0000000000000000000000000000000000000000000000000000000008152600401611b6790612c55565b60405180910390fd5b611b79816114a1565b15611bb9576040517f08c379a0000000000000000000000000000000000000000000000000000000008152600401611bb090612b35565b60405180910390fd5b611bc560008383611e0c565b6001600360008473ffffffffffffffffffffffffffffffffffffffff1673ffffffffffffffffffffffffffffffffffffffff1681526020019081526020016000206000828254611c159190612e3a565b92505081905550816002600083815260200190815260200160002060006101000a81548173ffffffffffffffffffffffffffffffffffffffff021916908373ffffffffffffffffffffffffffffffffffffffff160217905550808273ffffffffffffffffffffffffffffffffffffffff16600073ffffffffffffffffffffffffffffffffffffffff167fddf252ad1be2c89b69c2b068fc378daa952ba7f163c4a11628f55a4df523b3ef60405160405180910390a4611cd660008383611e11565b5050565b611ce3826114a1565b611d22576040517f08c379a0000000000000000000000000000000000000000000000000000000008152600401611d1990612c35565b60405180910390fd5b80600660008481526020019081526020016000209080519060200190611d4992919061217d565b505050565b606060405180602001604052806000815250905090565b6060611d70826114a1565b611daf576040517f08c379a0000000000000000000000000000000000000000000000000000000008152600401611da690612cb5565b60405180910390fd5b6000611db9611d4e565b90506000815111611dd95760405180602001604052806000815250611e04565b80611de384611fad565b604051602001611df4929190612997565b6040516020818303038152906040525b915050919050565b505050565b505050565b6000611e378473ffffffffffffffffffffffffffffffffffffffff1661215a565b15611fa0578373ffffffffffffffffffffffffffffffffffffffff1663150b7a02611e6061150d565b8786866040518563ffffffff1660e01b8152600401611e8294939291906129d6565b602060405180830381600087803b158015611e9c57600080fd5b505af1925050508015611ecd57506040513d601f19601f82011682018060405250810190611eca9190612529565b60015b611f50573d8060008114611efd576040519150601f19603f3d011682016040523d82523d6000602084013e611f02565b606091505b50600081511415611f48576040517f08c379a0000000000000000000000000000000000000000000000000000000008152600401611f3f90612af5565b60405180910390fd5b805181602001fd5b63150b7a0260e01b7bffffffffffffffffffffffffffffffffffffffffffffffffffffffff1916817bffffffffffffffffffffffffffffffffffffffffffffffffffffffff191614915050611fa5565b600190505b949350505050565b60606000821415611ff5576040518060400160405280600181526020017f30000000000000000000000000000000000000000000000000000000000000008152509050612155565b600082905060005b600082146120275780806120109061300e565b915050600a826120209190612e90565b9150611ffd565b60008167ffffffffffffffff811115612069577f4e487b7100000000000000000000000000000000000000000000000000000000600052604160045260246000fd5b6040519080825280601f01601f19166020018201604052801561209b5781602001600182028036833780820191505090505b5090505b6000851461214e576001826120b49190612ec1565b9150600a856120c39190613057565b60306120cf9190612e3a565b60f81b81838151811061210b577f4e487b7100000000000000000000000000000000000000000000000000000000600052603260045260246000fd5b60200101907effffffffffffffffffffffffffffffffffffffffffffffffffffffffffffff1916908160001a905350600a856121479190612e90565b945061209f565b8093505050505b919050565b6000808273ffffffffffffffffffffffffffffffffffffffff163b119050919050565b82805461218990612fab565b90600052602060002090601f0160209004810192826121ab57600085556121f2565b82601f106121c457805160ff19168380011785556121f2565b828001600101855582156121f2579182015b828111156121f15782518255916020019190600101906121d6565b5b5090506121ff9190612203565b5090565b5b8082111561221c576000816000905550600101612204565b5090565b600061223361222e84612d95565b612d70565b90508281526020810184848401111561224b57600080fd5b612256848285612f69565b509392505050565b600061227161226c84612dc6565b612d70565b90508281526020810184848401111561228957600080fd5b612294848285612f69565b509392505050565b6000813590506122ab81613677565b92915050565b6000813590506122c08161368e565b92915050565b6000813590506122d5816136a5565b92915050565b6000815190506122ea816136a5565b92915050565b600082601f83011261230157600080fd5b8135612311848260208601612220565b91505092915050565b600082601f83011261232b57600080fd5b813561233b84826020860161225e565b91505092915050565b600081359050612353816136bc565b92915050565b60006020828403121561236b57600080fd5b60006123798482850161229c565b91505092915050565b6000806040838503121561239557600080fd5b60006123a38582860161229c565b92505060206123b48582860161229c565b9150509250929050565b6000806000606084860312156123d357600080fd5b60006123e18682870161229c565b93505060206123f28682870161229c565b925050604061240386828701612344565b9150509250925092565b6000806000806080858703121561242357600080fd5b60006124318782880161229c565b94505060206124428782880161229c565b935050604061245387828801612344565b925050606085013567ffffffffffffffff81111561247057600080fd5b61247c878288016122f0565b91505092959194509250565b6000806040838503121561249b57600080fd5b60006124a98582860161229c565b92505060206124ba858286016122b1565b9150509250929050565b600080604083850312156124d757600080fd5b60006124e58582860161229c565b92505060206124f685828601612344565b9150509250929050565b60006020828403121561251257600080fd5b6000612520848285016122c6565b91505092915050565b60006020828403121561253b57600080fd5b6000612549848285016122db565b91505092915050565b6000806040838503121561256557600080fd5b600083013567ffffffffffffffff81111561257f57600080fd5b61258b8582860161231a565b925050602061259c85828601612344565b9150509250929050565b6000602082840312156125b857600080fd5b60006125c684828501612344565b91505092915050565b600080604083850312156125e257600080fd5b60006125f085828601612344565b925050602061260185828601612344565b9150509250929050565b61261481612ef5565b82525050565b61262381612f07565b82525050565b600061263482612df7565b61263e8185612e0d565b935061264e818560208601612f78565b61265781613144565b840191505092915050565b600061266d82612e02565b6126778185612e1e565b9350612687818560208601612f78565b61269081613144565b840191505092915050565b60006126a682612e02565b6126b08185612e2f565b93506126c0818560208601612f78565b80840191505092915050565b60006126d9601483612e1e565b91506126e482613155565b602082019050919050565b60006126fc603283612e1e565b91506127078261317e565b604082019050919050565b600061271f602583612e1e565b915061272a826131cd565b604082019050919050565b6000612742601c83612e1e565b915061274d8261321c565b602082019050919050565b6000612765601083612e1e565b915061277082613245565b602082019050919050565b6000612788602483612e1e565b91506127938261326e565b604082019050919050565b60006127ab601983612e1e565b91506127b6826132bd565b602082019050919050565b60006127ce602c83612e1e565b91506127d9826132e6565b604082019050919050565b60006127f1603883612e1e565b91506127fc82613335565b604082019050919050565b6000612814602a83612e1e565b915061281f82613384565b604082019050919050565b6000612837602983612e1e565b9150612842826133d3565b604082019050919050565b600061285a602e83612e1e565b915061286582613422565b604082019050919050565b600061287d602083612e1e565b915061288882613471565b602082019050919050565b60006128a0603183612e1e565b91506128ab8261349a565b604082019050919050565b60006128c3602c83612e1e565b91506128ce826134e9565b604082019050919050565b60006128e6602f83612e1e565b91506128f182613538565b604082019050919050565b6000612909602183612e1e565b915061291482613587565b604082019050919050565b600061292c603183612e1e565b9150612937826135d6565b604082019050919050565b600061294f601083612e1e565b915061295a82613625565b602082019050919050565b6000612972601c83612e1e565b915061297d8261364e565b602082019050919050565b61299181612f5f565b82525050565b60006129a3828561269b565b91506129af828461269b565b91508190509392505050565b60006020820190506129d0600083018461260b565b92915050565b60006080820190506129eb600083018761260b565b6129f8602083018661260b565b612a056040830185612988565b8181036060830152612a178184612629565b905095945050505050565b6000602082019050612a37600083018461261a565b92915050565b60006020820190508181036000830152612a578184612662565b905092915050565b600060e0820190508181036000830152612a79818a612662565b9050612a886020830189612988565b612a95604083018861260b565b612aa2606083018761260b565b612aaf608083018661260b565b612abc60a083018561261a565b612ac960c0830184612988565b98975050505050505050565b60006020820190508181036000830152612aee816126cc565b9050919050565b60006020820190508181036000830152612b0e816126ef565b9050919050565b60006020820190508181036000830152612b2e81612712565b9050919050565b60006020820190508181036000830152612b4e81612735565b9050919050565b60006020820190508181036000830152612b6e81612758565b9050919050565b60006020820190508181036000830152612b8e8161277b565b9050919050565b60006020820190508181036000830152612bae8161279e565b9050919050565b60006020820190508181036000830152612bce816127c1565b9050919050565b60006020820190508181036000830152612bee816127e4565b9050919050565b60006020820190508181036000830152612c0e81612807565b9050919050565b60006020820190508181036000830152612c2e8161282a565b9050919050565b60006020820190508181036000830152612c4e8161284d565b9050919050565b60006020820190508181036000830152612c6e81612870565b9050919050565b60006020820190508181036000830152612c8e81612893565b9050919050565b60006020820190508181036000830152612cae816128b6565b9050919050565b60006020820190508181036000830152612cce816128d9565b9050919050565b60006020820190508181036000830152612cee816128fc565b9050919050565b60006020820190508181036000830152612d0e8161291f565b9050919050565b60006020820190508181036000830152612d2e81612942565b9050919050565b60006020820190508181036000830152612d4e81612965565b9050919050565b6000602082019050612d6a6000830184612988565b92915050565b6000612d7a612d8b565b9050612d868282612fdd565b919050565b6000604051905090565b600067ffffffffffffffff821115612db057612daf613115565b5b612db982613144565b9050602081019050919050565b600067ffffffffffffffff821115612de157612de0613115565b5b612dea82613144565b9050602081019050919050565b600081519050919050565b600081519050919050565b600082825260208201905092915050565b600082825260208201905092915050565b600081905092915050565b6000612e4582612f5f565b9150612e5083612f5f565b9250827fffffffffffffffffffffffffffffffffffffffffffffffffffffffffffffffff03821115612e8557612e84613088565b5b828201905092915050565b6000612e9b82612f5f565b9150612ea683612f5f565b925082612eb657612eb56130b7565b5b828204905092915050565b6000612ecc82612f5f565b9150612ed783612f5f565b925082821015612eea57612ee9613088565b5b828203905092915050565b6000612f0082612f3f565b9050919050565b60008115159050919050565b60007fffffffff0000000000000000000000000000000000000000000000000000000082169050919050565b600073ffffffffffffffffffffffffffffffffffffffff82169050919050565b6000819050919050565b82818337600083830152505050565b60005b83811015612f96578082015181840152602081019050612f7b565b83811115612fa5576000848401525b50505050565b60006002820490506001821680612fc357607f821691505b60208210811415612fd757612fd66130e6565b5b50919050565b612fe682613144565b810181811067ffffffffffffffff8211171561300557613004613115565b5b80604052505050565b600061301982612f5f565b91507fffffffffffffffffffffffffffffffffffffffffffffffffffffffffffffffff82141561304c5761304b613088565b5b600182019050919050565b600061306282612f5f565b915061306d83612f5f565b92508261307d5761307c6130b7565b5b828206905092915050565b7f4e487b7100000000000000000000000000000000000000000000000000000000600052601160045260246000fd5b7f4e487b7100000000000000000000000000000000000000000000000000000000600052601260045260246000fd5b7f4e487b7100000000000000000000000000000000000000000000000000000000600052602260045260246000fd5b7f4e487b7100000000000000000000000000000000000000000000000000000000600052604160045260246000fd5b6000601f19601f8301169050919050565b7f4e667420616c726561647920666f722073616c65000000000000000000000000600082015250565b7f4552433732313a207472616e7366657220746f206e6f6e20455243373231526560008201527f63656976657220696d706c656d656e7465720000000000000000000000000000602082015250565b7f4552433732313a207472616e736665722066726f6d20696e636f72726563742060008201527f6f776e6572000000000000000000000000000000000000000000000000000000602082015250565b7f4552433732313a20746f6b656e20616c7265616479206d696e74656400000000600082015250565b7f4e6f74206f776e6572206f66204e667400000000000000000000000000000000600082015250565b7f4552433732313a207472616e7366657220746f20746865207a65726f2061646460008201527f7265737300000000000000000000000000000000000000000000000000000000602082015250565b7f4552433732313a20617070726f766520746f2063616c6c657200000000000000600082015250565b7f4552433732313a206f70657261746f7220717565727920666f72206e6f6e657860008201527f697374656e7420746f6b656e0000000000000000000000000000000000000000602082015250565b7f4552433732313a20617070726f76652063616c6c6572206973206e6f74206f7760008201527f6e6572206e6f7220617070726f76656420666f7220616c6c0000000000000000602082015250565b7f4552433732313a2062616c616e636520717565727920666f7220746865207a6560008201527f726f206164647265737300000000000000000000000000000000000000000000602082015250565b7f4552433732313a206f776e657220717565727920666f72206e6f6e657869737460008201527f656e7420746f6b656e0000000000000000000000000000000000000000000000602082015250565b7f45524337323155524953746f726167653a2055524920736574206f66206e6f6e60008201527f6578697374656e7420746f6b656e000000000000000000000000000000000000602082015250565b7f4552433732313a206d696e7420746f20746865207a65726f2061646472657373600082015250565b7f45524337323155524953746f726167653a2055524920717565727920666f722060008201527f6e6f6e6578697374656e7420746f6b656e000000000000000000000000000000602082015250565b7f4552433732313a20617070726f76656420717565727920666f72206e6f6e657860008201527f697374656e7420746f6b656e0000000000000000000000000000000000000000602082015250565b7f4552433732314d657461646174613a2055524920717565727920666f72206e6f60008201527f6e6578697374656e7420746f6b656e0000000000000000000000000000000000602082015250565b7f4552433732313a20617070726f76616c20746f2063757272656e74206f776e6560008201527f7200000000000000000000000000000000000000000000000000000000000000602082015250565b7f4552433732313a207472616e736665722063616c6c6572206973206e6f74206f60008201527f776e6572206e6f7220617070726f766564000000000000000000000000000000602082015250565b7f4e6674206e6f7420666f722073616c6500000000000000000000000000000000600082015250565b7f5072696365206d757374206265206174206c6561737420312077656900000000600082015250565b61368081612ef5565b811461368b57600080fd5b50565b61369781612f07565b81146136a257600080fd5b50565b6136ae81612f13565b81146136b957600080fd5b50565b6136c581612f5f565b81146136d057600080fd5b5056fea2646970667358221220fe4ceeed3d20744145aaf52d725ef149a1fda9715516e6542777ab64a7d4116a64736f6c63430008040033",
  "linkReferences": {},
  "deployedLinkReferences": {}
}