{
  "_format": "hh-sol-artifact-1",
  "contractName": "TriggerNFT",
  "sourceName": "contracts/TriggerNFT.sol",
  "abi": [
    {
      "inputs": [],
      "stateMutability": "nonpayable",
      "type": "constructor"
    },
    {
      "anonymous": false,
      "inputs": [
        {
          "indexed": true,
          "internalType": "address",
          "name": "owner",
          "type": "address"
        },
        {
          "indexed": true,
          "internalType": "address",
          "name": "approved",
          "type": "address"
        },
        {
          "indexed": true,
          "internalType": "uint256",
          "name": "tokenId",
          "type": "uint256"
        }
      ],
      "name": "Approval",
      "type": "event"
    },
    {
      "anonymous": false,
      "inputs": [
        {
          "indexed": true,
          "internalType": "address",
          "name": "owner",
          "type": "address"
        },
        {
          "indexed": true,
          "internalType": "address",
          "name": "operator",
          "type": "address"
        },
        {
          "indexed": false,
          "internalType": "bool",
          "name": "approved",
          "type": "bool"
        }
      ],
      "name": "ApprovalForAll",
      "type": "event"
    },
    {
      "anonymous": false,
      "inputs": [
        {
          "indexed": true,
          "internalType": "address",
          "name": "from",
          "type": "address"
        },
        {
          "indexed": true,
          "internalType": "address",
          "name": "to",
          "type": "address"
        },
        {
          "indexed": true,
          "internalType": "uint256",
          "name": "tokenId",
          "type": "uint256"
        }
      ],
      "name": "Transfer",
      "type": "event"
    },
    {
      "inputs": [
        {
          "internalType": "address",
          "name": "to",
          "type": "address"
        },
        {
          "internalType": "uint256",
          "name": "tokenId",
          "type": "uint256"
        }
      ],
      "name": "approve",
      "outputs": [],
      "stateMutability": "nonpayable",
      "type": "function"
    },
    {
      "inputs": [
        {
          "internalType": "address",
          "name": "owner",
          "type": "address"
        }
      ],
      "name": "balanceOf",
      "outputs": [
        {
          "internalType": "uint256",
          "name": "",
          "type": "uint256"
        }
      ],
      "stateMutability": "view",
      "type": "function"
    },
    {
      "inputs": [
        {
          "internalType": "uint256",
          "name": "tokenId",
          "type": "uint256"
        }
      ],
      "name": "getApproved",
      "outputs": [
        {
          "internalType": "address",
          "name": "",
          "type": "address"
        }
      ],
      "stateMutability": "view",
      "type": "function"
    },
    {
      "inputs": [
        {
          "internalType": "uint256",
          "name": "_tokenId",
          "type": "uint256"
        }
      ],
      "name": "getNFTdetails",
      "outputs": [
        {
          "internalType": "string",
          "name": "",
          "type": "string"
        },
        {
          "internalType": "uint256",
          "name": "",
          "type": "uint256"
        },
        {
          "internalType": "address",
          "name": "",
          "type": "address"
        },
        {
          "internalType": "address",
          "name": "",
          "type": "address"
        },
        {
          "internalType": "address",
          "name": "",
          "type": "address"
        },
        {
          "internalType": "bool",
          "name": "",
          "type": "bool"
        },
        {
          "internalType": "uint256",
          "name": "",
          "type": "uint256"
        }
      ],
      "stateMutability": "view",
      "type": "function"
    },
    {
      "inputs": [
        {
          "internalType": "address",
          "name": "owner",
          "type": "address"
        },
        {
          "internalType": "address",
          "name": "operator",
          "type": "address"
        }
      ],
      "name": "isApprovedForAll",
      "outputs": [
        {
          "internalType": "bool",
          "name": "",
          "type": "bool"
        }
      ],
      "stateMutability": "view",
      "type": "function"
    },
    {
      "inputs": [
        {
          "internalType": "string",
          "name": "tokenURI",
          "type": "string"
        },
        {
          "internalType": "uint256",
          "name": "_portalId",
          "type": "uint256"
        },
        {
          "internalType": "uint256",
          "name": "_price",
          "type": "uint256"
        }
      ],
      "name": "mintNFT",
      "outputs": [
        {
          "internalType": "uint256",
          "name": "",
          "type": "uint256"
        }
      ],
      "stateMutability": "nonpayable",
      "type": "function"
    },
    {
      "inputs": [],
      "name": "name",
      "outputs": [
        {
          "internalType": "string",
          "name": "",
          "type": "string"
        }
      ],
      "stateMutability": "view",
      "type": "function"
    },
    {
      "inputs": [
        {
          "internalType": "uint256",
          "name": "tokenId",
          "type": "uint256"
        }
      ],
      "name": "ownerOf",
      "outputs": [
        {
          "internalType": "address",
          "name": "",
          "type": "address"
        }
      ],
      "stateMutability": "view",
      "type": "function"
    },
    {
      "inputs": [
        {
          "internalType": "address",
          "name": "from",
          "type": "address"
        },
        {
          "internalType": "address",
          "name": "to",
          "type": "address"
        },
        {
          "internalType": "uint256",
          "name": "tokenId",
          "type": "uint256"
        }
      ],
      "name": "safeTransferFrom",
      "outputs": [],
      "stateMutability": "nonpayable",
      "type": "function"
    },
    {
      "inputs": [
        {
          "internalType": "address",
          "name": "from",
          "type": "address"
        },
        {
          "internalType": "address",
          "name": "to",
          "type": "address"
        },
        {
          "internalType": "uint256",
          "name": "tokenId",
          "type": "uint256"
        },
        {
          "internalType": "bytes",
          "name": "_data",
          "type": "bytes"
        }
      ],
      "name": "safeTransferFrom",
      "outputs": [],
      "stateMutability": "nonpayable",
      "type": "function"
    },
    {
      "inputs": [
        {
          "internalType": "address",
          "name": "operator",
          "type": "address"
        },
        {
          "internalType": "bool",
          "name": "approved",
          "type": "bool"
        }
      ],
      "name": "setApprovalForAll",
      "outputs": [],
      "stateMutability": "nonpayable",
      "type": "function"
    },
    {
      "inputs": [
        {
          "internalType": "bytes4",
          "name": "interfaceId",
          "type": "bytes4"
        }
      ],
      "name": "supportsInterface",
      "outputs": [
        {
          "internalType": "bool",
          "name": "",
          "type": "bool"
        }
      ],
      "stateMutability": "view",
      "type": "function"
    },
    {
      "inputs": [],
      "name": "symbol",
      "outputs": [
        {
          "internalType": "string",
          "name": "",
          "type": "string"
        }
      ],
      "stateMutability": "view",
      "type": "function"
    },
    {
      "inputs": [
        {
          "internalType": "uint256",
          "name": "_price",
          "type": "uint256"
        },
        {
          "internalType": "uint256",
          "name": "_tokenId",
          "type": "uint256"
        }
      ],
      "name": "toggleSale",
      "outputs": [],
      "stateMutability": "nonpayable",
      "type": "function"
    },
    {
      "inputs": [
        {
          "internalType": "uint256",
          "name": "tokenId",
          "type": "uint256"
        }
      ],
      "name": "tokenURI",
      "outputs": [
        {
          "internalType": "string",
          "name": "",
          "type": "string"
        }
      ],
      "stateMutability": "view",
      "type": "function"
    },
    {
      "inputs": [
        {
          "internalType": "address",
          "name": "from",
          "type": "address"
        },
        {
          "internalType": "address",
          "name": "to",
          "type": "address"
        },
        {
          "internalType": "uint256",
          "name": "tokenId",
          "type": "uint256"
        }
      ],
      "name": "transferFrom",
      "outputs": [],
      "stateMutability": "nonpayable",
      "type": "function"
    },
    {
      "inputs": [
        {
          "internalType": "uint256",
          "name": "_tokenId",
          "type": "uint256"
        }
      ],
      "name": "transferNFT",
      "outputs": [],
      "stateMutability": "nonpayable",
      "type": "function"
    },
    {
      "inputs": [
        {
          "internalType": "uint256",
          "name": "_price",
          "type": "uint256"
        },
        {
          "internalType": "uint256",
          "name": "_tokenId",
          "type": "uint256"
        }
      ],
      "name": "updateListingPrice",
      "outputs": [],
      "stateMutability": "nonpayable",
      "type": "function"
    }
  ],
  "bytecode": "0x60806040523480156200001157600080fd5b506040518060400160405280601481526020017f547269676765722050726f746f636f6c204e46540000000000000000000000008152506040518060400160405280600481526020017f4e54524700000000000000000000000000000000000000000000000000000000815250816000908051906020019062000096929190620000b8565b508060019080519060200190620000af929190620000b8565b505050620001cd565b828054620000c69062000168565b90600052602060002090601f016020900481019282620000ea576000855562000136565b82601f106200010557805160ff191683800117855562000136565b8280016001018555821562000136579182015b828111156200013557825182559160200191906001019062000118565b5b50905062000145919062000149565b5090565b5b80821115620001645760008160009055506001016200014a565b5090565b600060028204905060018216806200018157607f821691505b602082108114156200019857620001976200019e565b5b50919050565b7f4e487b7100000000000000000000000000000000000000000000000000000000600052602260045260246000fd5b61371580620001dd6000396000f3fe608060405234801561001057600080fd5b50600436106101165760003560e01c806370a08231116100a2578063b88d4fde11610071578063b88d4fde146102ef578063ba9a35cd1461030b578063c460494314610341578063c87b56dd1461035d578063e985e9c51461038d57610116565b806370a082311461025557806395d89b4114610285578063977922d2146102a3578063a22cb465146102d357610116565b806323b872dd116100e957806323b872dd146101b5578063249e10c5146101d157806342842e0e146101ed5780635c3c796d146102095780636352211e1461022557610116565b806301ffc9a71461011b57806306fdde031461014b578063081812fc14610169578063095ea7b314610199575b600080fd5b610135600480360381019061013091906124f9565b6103bd565b6040516101429190612a2e565b60405180910390f35b61015361049f565b6040516101609190612a49565b60405180910390f35b610183600480360381019061017e91906125b2565b610531565b60405161019091906129c7565b60405180910390f35b6101b360048036038101906101ae91906124bd565b6105b6565b005b6101cf60048036038101906101ca91906123b7565b6106ce565b005b6101eb60048036038101906101e691906125b2565b61072e565b005b610207600480360381019061020291906123b7565b6108b4565b005b610223600480360381019061021e91906125db565b6108d4565b005b61023f600480360381019061023a91906125b2565b610a57565b60405161024c91906129c7565b60405180910390f35b61026f600480360381019061026a9190612352565b610b09565b60405161027c9190612d61565b60405180910390f35b61028d610bc1565b60405161029a9190612a49565b60405180910390f35b6102bd60048036038101906102b8919061254b565b610c53565b6040516102ca9190612d61565b60405180910390f35b6102ed60048036038101906102e89190612481565b610e57565b005b61030960048036038101906103049190612406565b610e6d565b005b610325600480360381019061032091906125b2565b610ecf565b6040516103389796959493929190612a6b565b60405180910390f35b61035b600480360381019061035691906125db565b611107565b005b610377600480360381019061037291906125b2565b61124a565b6040516103849190612a49565b60405180910390f35b6103a760048036038101906103a2919061237b565b61139c565b6040516103b49190612a2e565b60405180910390f35b60007f80ac58cd000000000000000000000000000000000000000000000000000000007bffffffffffffffffffffffffffffffffffffffffffffffffffffffff1916827bffffffffffffffffffffffffffffffffffffffffffffffffffffffff1916148061048857507f5b5e139f000000000000000000000000000000000000000000000000000000007bffffffffffffffffffffffffffffffffffffffffffffffffffffffff1916827bffffffffffffffffffffffffffffffffffffffffffffffffffffffff1916145b80610498575061049782611430565b5b9050919050565b6060600080546104ae90612fb7565b80601f01602080910402602001604051908101604052809291908181526020018280546104da90612fb7565b80156105275780601f106104fc57610100808354040283529160200191610527565b820191906000526020600020905b81548152906001019060200180831161050a57829003601f168201915b5050505050905090565b600061053c8261149a565b61057b576040517f08c379a000000000000000000000000000000000000000000000000000000000815260040161057290612ca1565b60405180910390fd5b6004600083815260200190815260200160002060009054906101000a900473ffffffffffffffffffffffffffffffffffffffff169050919050565b60006105c182610a57565b90508073ffffffffffffffffffffffffffffffffffffffff168373ffffffffffffffffffffffffffffffffffffffff161415610632576040517f08c379a000000000000000000000000000000000000000000000000000000000815260040161062990612ce1565b60405180910390fd5b8073ffffffffffffffffffffffffffffffffffffffff16610651611506565b73ffffffffffffffffffffffffffffffffffffffff161480610680575061067f8161067a611506565b61139c565b5b6106bf576040517f08c379a00000000000000000000000000000000000000000000000000000000081526004016106b690612be1565b60405180910390fd5b6106c9838361150e565b505050565b6106df6106d9611506565b826115c7565b61071e576040517f08c379a000000000000000000000000000000000000000000000000000000000815260040161071590612d01565b60405180910390fd5b6107298383836116a5565b505050565b60006008600083815260200190815260200160002060040160009054906101000a900473ffffffffffffffffffffffffffffffffffffffff1690506008600083815260200190815260200160002060050160149054906101000a900460ff166107cc576040517f08c379a00000000000000000000000000000000000000000000000000000000081526004016107c390612d21565b60405180910390fd5b6107d78133846116a5565b806008600084815260200190815260200160002060050160006101000a81548173ffffffffffffffffffffffffffffffffffffffff021916908373ffffffffffffffffffffffffffffffffffffffff160217905550336008600084815260200190815260200160002060040160006101000a81548173ffffffffffffffffffffffffffffffffffffffff021916908373ffffffffffffffffffffffffffffffffffffffff16021790555060006008600084815260200190815260200160002060050160146101000a81548160ff0219169083151502179055505050565b6108cf83838360405180602001604052806000815250610e6d565b505050565b8060006108e082610a57565b90503373ffffffffffffffffffffffffffffffffffffffff168173ffffffffffffffffffffffffffffffffffffffff1614610950576040517f08c379a000000000000000000000000000000000000000000000000000000000815260040161094790612b61565b60405180910390fd5b60008411610993576040517f08c379a000000000000000000000000000000000000000000000000000000000815260040161098a90612d41565b60405180910390fd5b600015156008600085815260200190815260200160002060050160149054906101000a900460ff161515146109fd576040517f08c379a00000000000000000000000000000000000000000000000000000000081526004016109f490612ae1565b60405180910390fd5b60016008600085815260200190815260200160002060050160146101000a81548160ff021916908315150217905550836008600085815260200190815260200160002060060181905550610a51308461150e565b50505050565b6000806002600084815260200190815260200160002060009054906101000a900473ffffffffffffffffffffffffffffffffffffffff169050600073ffffffffffffffffffffffffffffffffffffffff168173ffffffffffffffffffffffffffffffffffffffff161415610b00576040517f08c379a0000000000000000000000000000000000000000000000000000000008152600401610af790612c21565b60405180910390fd5b80915050919050565b60008073ffffffffffffffffffffffffffffffffffffffff168273ffffffffffffffffffffffffffffffffffffffff161415610b7a576040517f08c379a0000000000000000000000000000000000000000000000000000000008152600401610b7190612c01565b60405180910390fd5b600360008373ffffffffffffffffffffffffffffffffffffffff1673ffffffffffffffffffffffffffffffffffffffff168152602001908152602001600020549050919050565b606060018054610bd090612fb7565b80601f0160208091040260200160405190810160405280929190818152602001828054610bfc90612fb7565b8015610c495780601f10610c1e57610100808354040283529160200191610c49565b820191906000526020600020905b815481529060010190602001808311610c2c57829003601f168201915b5050505050905090565b6000610c5f600761190c565b6000610c6b6007611922565b9050610c773382611930565b610c818186611b0a565b60006040518061010001604052808381526020018681526020018781526020013373ffffffffffffffffffffffffffffffffffffffff1681526020013373ffffffffffffffffffffffffffffffffffffffff1681526020013373ffffffffffffffffffffffffffffffffffffffff168152602001600115158152602001858152509050806008600084815260200190815260200160002060008201518160000155602082015181600101556040820151816002019080519060200190610d48929190612176565b5060608201518160030160006101000a81548173ffffffffffffffffffffffffffffffffffffffff021916908373ffffffffffffffffffffffffffffffffffffffff16021790555060808201518160040160006101000a81548173ffffffffffffffffffffffffffffffffffffffff021916908373ffffffffffffffffffffffffffffffffffffffff16021790555060a08201518160050160006101000a81548173ffffffffffffffffffffffffffffffffffffffff021916908373ffffffffffffffffffffffffffffffffffffffff16021790555060c08201518160050160146101000a81548160ff02191690831515021790555060e0820151816006015590505081925050509392505050565b610e69610e62611506565b8383611b7e565b5050565b610e7e610e78611506565b836115c7565b610ebd576040517f08c379a0000000000000000000000000000000000000000000000000000000008152600401610eb490612d01565b60405180910390fd5b610ec984848484611ceb565b50505050565b60606000806000806000806000600860008a8152602001908152602001600020604051806101000160405290816000820154815260200160018201548152602001600282018054610f1f90612fb7565b80601f0160208091040260200160405190810160405280929190818152602001828054610f4b90612fb7565b8015610f985780601f10610f6d57610100808354040283529160200191610f98565b820191906000526020600020905b815481529060010190602001808311610f7b57829003601f168201915b505050505081526020016003820160009054906101000a900473ffffffffffffffffffffffffffffffffffffffff1673ffffffffffffffffffffffffffffffffffffffff1673ffffffffffffffffffffffffffffffffffffffff1681526020016004820160009054906101000a900473ffffffffffffffffffffffffffffffffffffffff1673ffffffffffffffffffffffffffffffffffffffff1673ffffffffffffffffffffffffffffffffffffffff1681526020016005820160009054906101000a900473ffffffffffffffffffffffffffffffffffffffff1673ffffffffffffffffffffffffffffffffffffffff1673ffffffffffffffffffffffffffffffffffffffff1681526020016005820160149054906101000a900460ff16151515158152602001600682015481525050905080604001518160200151826060015183608001518460a001518560c001518660e00151975097509750975097509750975050919395979092949650565b80600061111382610a57565b90503373ffffffffffffffffffffffffffffffffffffffff168173ffffffffffffffffffffffffffffffffffffffff1614611183576040517f08c379a000000000000000000000000000000000000000000000000000000000815260040161117a90612b61565b60405180910390fd5b600084116111c6576040517f08c379a00000000000000000000000000000000000000000000000000000000081526004016111bd90612d41565b60405180910390fd5b6008600084815260200190815260200160002060050160149054906101000a900460ff16611229576040517f08c379a000000000000000000000000000000000000000000000000000000000815260040161122090612d21565b60405180910390fd5b83600860008581526020019081526020016000206006018190555050505050565b60606112558261149a565b611294576040517f08c379a000000000000000000000000000000000000000000000000000000000815260040161128b90612c81565b60405180910390fd5b60006006600084815260200190815260200160002080546112b490612fb7565b80601f01602080910402602001604051908101604052809291908181526020018280546112e090612fb7565b801561132d5780601f106113025761010080835404028352916020019161132d565b820191906000526020600020905b81548152906001019060200180831161131057829003601f168201915b50505050509050600061133e611d47565b9050600081511415611354578192505050611397565b6000825111156113895780826040516020016113719291906129a3565b60405160208183030381529060405292505050611397565b61139284611d5e565b925050505b919050565b6000600560008473ffffffffffffffffffffffffffffffffffffffff1673ffffffffffffffffffffffffffffffffffffffff16815260200190815260200160002060008373ffffffffffffffffffffffffffffffffffffffff1673ffffffffffffffffffffffffffffffffffffffff16815260200190815260200160002060009054906101000a900460ff16905092915050565b60007f01ffc9a7000000000000000000000000000000000000000000000000000000007bffffffffffffffffffffffffffffffffffffffffffffffffffffffff1916827bffffffffffffffffffffffffffffffffffffffffffffffffffffffff1916149050919050565b60008073ffffffffffffffffffffffffffffffffffffffff166002600084815260200190815260200160002060009054906101000a900473ffffffffffffffffffffffffffffffffffffffff1673ffffffffffffffffffffffffffffffffffffffff1614159050919050565b600033905090565b816004600083815260200190815260200160002060006101000a81548173ffffffffffffffffffffffffffffffffffffffff021916908373ffffffffffffffffffffffffffffffffffffffff160217905550808273ffffffffffffffffffffffffffffffffffffffff1661158183610a57565b73ffffffffffffffffffffffffffffffffffffffff167f8c5be1e5ebec7d5bd14f71427d1e84f3dd0314c0f7b2291e5b200ac8c7c3b92560405160405180910390a45050565b60006115d28261149a565b611611576040517f08c379a000000000000000000000000000000000000000000000000000000000815260040161160890612bc1565b60405180910390fd5b600061161c83610a57565b90508073ffffffffffffffffffffffffffffffffffffffff168473ffffffffffffffffffffffffffffffffffffffff16148061168b57508373ffffffffffffffffffffffffffffffffffffffff1661167384610531565b73ffffffffffffffffffffffffffffffffffffffff16145b8061169c575061169b818561139c565b5b91505092915050565b8273ffffffffffffffffffffffffffffffffffffffff166116c582610a57565b73ffffffffffffffffffffffffffffffffffffffff161461171b576040517f08c379a000000000000000000000000000000000000000000000000000000000815260040161171290612b21565b60405180910390fd5b600073ffffffffffffffffffffffffffffffffffffffff168273ffffffffffffffffffffffffffffffffffffffff16141561178b576040517f08c379a000000000000000000000000000000000000000000000000000000000815260040161178290612b81565b60405180910390fd5b611796838383611e05565b6117a160008261150e565b6001600360008573ffffffffffffffffffffffffffffffffffffffff1673ffffffffffffffffffffffffffffffffffffffff16815260200190815260200160002060008282546117f19190612ecd565b925050819055506001600360008473ffffffffffffffffffffffffffffffffffffffff1673ffffffffffffffffffffffffffffffffffffffff16815260200190815260200160002060008282546118489190612e46565b92505081905550816002600083815260200190815260200160002060006101000a81548173ffffffffffffffffffffffffffffffffffffffff021916908373ffffffffffffffffffffffffffffffffffffffff160217905550808273ffffffffffffffffffffffffffffffffffffffff168473ffffffffffffffffffffffffffffffffffffffff167fddf252ad1be2c89b69c2b068fc378daa952ba7f163c4a11628f55a4df523b3ef60405160405180910390a4611907838383611e0a565b505050565b6001816000016000828254019250508190555050565b600081600001549050919050565b600073ffffffffffffffffffffffffffffffffffffffff168273ffffffffffffffffffffffffffffffffffffffff1614156119a0576040517f08c379a000000000000000000000000000000000000000000000000000000000815260040161199790612c61565b60405180910390fd5b6119a98161149a565b156119e9576040517f08c379a00000000000000000000000000000000000000000000000000000000081526004016119e090612b41565b60405180910390fd5b6119f560008383611e05565b6001600360008473ffffffffffffffffffffffffffffffffffffffff1673ffffffffffffffffffffffffffffffffffffffff1681526020019081526020016000206000828254611a459190612e46565b92505081905550816002600083815260200190815260200160002060006101000a81548173ffffffffffffffffffffffffffffffffffffffff021916908373ffffffffffffffffffffffffffffffffffffffff160217905550808273ffffffffffffffffffffffffffffffffffffffff16600073ffffffffffffffffffffffffffffffffffffffff167fddf252ad1be2c89b69c2b068fc378daa952ba7f163c4a11628f55a4df523b3ef60405160405180910390a4611b0660008383611e0a565b5050565b611b138261149a565b611b52576040517f08c379a0000000000000000000000000000000000000000000000000000000008152600401611b4990612c41565b60405180910390fd5b80600660008481526020019081526020016000209080519060200190611b79929190612176565b505050565b8173ffffffffffffffffffffffffffffffffffffffff168373ffffffffffffffffffffffffffffffffffffffff161415611bed576040517f08c379a0000000000000000000000000000000000000000000000000000000008152600401611be490612ba1565b60405180910390fd5b80600560008573ffffffffffffffffffffffffffffffffffffffff1673ffffffffffffffffffffffffffffffffffffffff16815260200190815260200160002060008473ffffffffffffffffffffffffffffffffffffffff1673ffffffffffffffffffffffffffffffffffffffff16815260200190815260200160002060006101000a81548160ff0219169083151502179055508173ffffffffffffffffffffffffffffffffffffffff168373ffffffffffffffffffffffffffffffffffffffff167f17307eab39ab6107e8899845ad3d59bd9653f200f220920489ca2b5937696c3183604051611cde9190612a2e565b60405180910390a3505050565b611cf68484846116a5565b611d0284848484611e0f565b611d41576040517f08c379a0000000000000000000000000000000000000000000000000000000008152600401611d3890612b01565b60405180910390fd5b50505050565b606060405180602001604052806000815250905090565b6060611d698261149a565b611da8576040517f08c379a0000000000000000000000000000000000000000000000000000000008152600401611d9f90612cc1565b60405180910390fd5b6000611db2611d47565b90506000815111611dd25760405180602001604052806000815250611dfd565b80611ddc84611fa6565b604051602001611ded9291906129a3565b6040516020818303038152906040525b915050919050565b505050565b505050565b6000611e308473ffffffffffffffffffffffffffffffffffffffff16612153565b15611f99578373ffffffffffffffffffffffffffffffffffffffff1663150b7a02611e59611506565b8786866040518563ffffffff1660e01b8152600401611e7b94939291906129e2565b602060405180830381600087803b158015611e9557600080fd5b505af1925050508015611ec657506040513d601f19601f82011682018060405250810190611ec39190612522565b60015b611f49573d8060008114611ef6576040519150601f19603f3d011682016040523d82523d6000602084013e611efb565b606091505b50600081511415611f41576040517f08c379a0000000000000000000000000000000000000000000000000000000008152600401611f3890612b01565b60405180910390fd5b805181602001fd5b63150b7a0260e01b7bffffffffffffffffffffffffffffffffffffffffffffffffffffffff1916817bffffffffffffffffffffffffffffffffffffffffffffffffffffffff191614915050611f9e565b600190505b949350505050565b60606000821415611fee576040518060400160405280600181526020017f3000000000000000000000000000000000000000000000000000000000000000815250905061214e565b600082905060005b600082146120205780806120099061301a565b915050600a826120199190612e9c565b9150611ff6565b60008167ffffffffffffffff811115612062577f4e487b7100000000000000000000000000000000000000000000000000000000600052604160045260246000fd5b6040519080825280601f01601f1916602001820160405280156120945781602001600182028036833780820191505090505b5090505b60008514612147576001826120ad9190612ecd565b9150600a856120bc9190613063565b60306120c89190612e46565b60f81b818381518110612104577f4e487b7100000000000000000000000000000000000000000000000000000000600052603260045260246000fd5b60200101907effffffffffffffffffffffffffffffffffffffffffffffffffffffffffffff1916908160001a905350600a856121409190612e9c565b9450612098565b8093505050505b919050565b6000808273ffffffffffffffffffffffffffffffffffffffff163b119050919050565b82805461218290612fb7565b90600052602060002090601f0160209004810192826121a457600085556121eb565b82601f106121bd57805160ff19168380011785556121eb565b828001600101855582156121eb579182015b828111156121ea5782518255916020019190600101906121cf565b5b5090506121f891906121fc565b5090565b5b808211156122155760008160009055506001016121fd565b5090565b600061222c61222784612da1565b612d7c565b90508281526020810184848401111561224457600080fd5b61224f848285612f75565b509392505050565b600061226a61226584612dd2565b612d7c565b90508281526020810184848401111561228257600080fd5b61228d848285612f75565b509392505050565b6000813590506122a481613683565b92915050565b6000813590506122b98161369a565b92915050565b6000813590506122ce816136b1565b92915050565b6000815190506122e3816136b1565b92915050565b600082601f8301126122fa57600080fd5b813561230a848260208601612219565b91505092915050565b600082601f83011261232457600080fd5b8135612334848260208601612257565b91505092915050565b60008135905061234c816136c8565b92915050565b60006020828403121561236457600080fd5b600061237284828501612295565b91505092915050565b6000806040838503121561238e57600080fd5b600061239c85828601612295565b92505060206123ad85828601612295565b9150509250929050565b6000806000606084860312156123cc57600080fd5b60006123da86828701612295565b93505060206123eb86828701612295565b92505060406123fc8682870161233d565b9150509250925092565b6000806000806080858703121561241c57600080fd5b600061242a87828801612295565b945050602061243b87828801612295565b935050604061244c8782880161233d565b925050606085013567ffffffffffffffff81111561246957600080fd5b612475878288016122e9565b91505092959194509250565b6000806040838503121561249457600080fd5b60006124a285828601612295565b92505060206124b3858286016122aa565b9150509250929050565b600080604083850312156124d057600080fd5b60006124de85828601612295565b92505060206124ef8582860161233d565b9150509250929050565b60006020828403121561250b57600080fd5b6000612519848285016122bf565b91505092915050565b60006020828403121561253457600080fd5b6000612542848285016122d4565b91505092915050565b60008060006060848603121561256057600080fd5b600084013567ffffffffffffffff81111561257a57600080fd5b61258686828701612313565b93505060206125978682870161233d565b92505060406125a88682870161233d565b9150509250925092565b6000602082840312156125c457600080fd5b60006125d28482850161233d565b91505092915050565b600080604083850312156125ee57600080fd5b60006125fc8582860161233d565b925050602061260d8582860161233d565b9150509250929050565b61262081612f01565b82525050565b61262f81612f13565b82525050565b600061264082612e03565b61264a8185612e19565b935061265a818560208601612f84565b61266381613150565b840191505092915050565b600061267982612e0e565b6126838185612e2a565b9350612693818560208601612f84565b61269c81613150565b840191505092915050565b60006126b282612e0e565b6126bc8185612e3b565b93506126cc818560208601612f84565b80840191505092915050565b60006126e5601483612e2a565b91506126f082613161565b602082019050919050565b6000612708603283612e2a565b91506127138261318a565b604082019050919050565b600061272b602583612e2a565b9150612736826131d9565b604082019050919050565b600061274e601c83612e2a565b915061275982613228565b602082019050919050565b6000612771601083612e2a565b915061277c82613251565b602082019050919050565b6000612794602483612e2a565b915061279f8261327a565b604082019050919050565b60006127b7601983612e2a565b91506127c2826132c9565b602082019050919050565b60006127da602c83612e2a565b91506127e5826132f2565b604082019050919050565b60006127fd603883612e2a565b915061280882613341565b604082019050919050565b6000612820602a83612e2a565b915061282b82613390565b604082019050919050565b6000612843602983612e2a565b915061284e826133df565b604082019050919050565b6000612866602e83612e2a565b91506128718261342e565b604082019050919050565b6000612889602083612e2a565b91506128948261347d565b602082019050919050565b60006128ac603183612e2a565b91506128b7826134a6565b604082019050919050565b60006128cf602c83612e2a565b91506128da826134f5565b604082019050919050565b60006128f2602f83612e2a565b91506128fd82613544565b604082019050919050565b6000612915602183612e2a565b915061292082613593565b604082019050919050565b6000612938603183612e2a565b9150612943826135e2565b604082019050919050565b600061295b601083612e2a565b915061296682613631565b602082019050919050565b600061297e601c83612e2a565b91506129898261365a565b602082019050919050565b61299d81612f6b565b82525050565b60006129af82856126a7565b91506129bb82846126a7565b91508190509392505050565b60006020820190506129dc6000830184612617565b92915050565b60006080820190506129f76000830187612617565b612a046020830186612617565b612a116040830185612994565b8181036060830152612a238184612635565b905095945050505050565b6000602082019050612a436000830184612626565b92915050565b60006020820190508181036000830152612a63818461266e565b905092915050565b600060e0820190508181036000830152612a85818a61266e565b9050612a946020830189612994565b612aa16040830188612617565b612aae6060830187612617565b612abb6080830186612617565b612ac860a0830185612626565b612ad560c0830184612994565b98975050505050505050565b60006020820190508181036000830152612afa816126d8565b9050919050565b60006020820190508181036000830152612b1a816126fb565b9050919050565b60006020820190508181036000830152612b3a8161271e565b9050919050565b60006020820190508181036000830152612b5a81612741565b9050919050565b60006020820190508181036000830152612b7a81612764565b9050919050565b60006020820190508181036000830152612b9a81612787565b9050919050565b60006020820190508181036000830152612bba816127aa565b9050919050565b60006020820190508181036000830152612bda816127cd565b9050919050565b60006020820190508181036000830152612bfa816127f0565b9050919050565b60006020820190508181036000830152612c1a81612813565b9050919050565b60006020820190508181036000830152612c3a81612836565b9050919050565b60006020820190508181036000830152612c5a81612859565b9050919050565b60006020820190508181036000830152612c7a8161287c565b9050919050565b60006020820190508181036000830152612c9a8161289f565b9050919050565b60006020820190508181036000830152612cba816128c2565b9050919050565b60006020820190508181036000830152612cda816128e5565b9050919050565b60006020820190508181036000830152612cfa81612908565b9050919050565b60006020820190508181036000830152612d1a8161292b565b9050919050565b60006020820190508181036000830152612d3a8161294e565b9050919050565b60006020820190508181036000830152612d5a81612971565b9050919050565b6000602082019050612d766000830184612994565b92915050565b6000612d86612d97565b9050612d928282612fe9565b919050565b6000604051905090565b600067ffffffffffffffff821115612dbc57612dbb613121565b5b612dc582613150565b9050602081019050919050565b600067ffffffffffffffff821115612ded57612dec613121565b5b612df682613150565b9050602081019050919050565b600081519050919050565b600081519050919050565b600082825260208201905092915050565b600082825260208201905092915050565b600081905092915050565b6000612e5182612f6b565b9150612e5c83612f6b565b9250827fffffffffffffffffffffffffffffffffffffffffffffffffffffffffffffffff03821115612e9157612e90613094565b5b828201905092915050565b6000612ea782612f6b565b9150612eb283612f6b565b925082612ec257612ec16130c3565b5b828204905092915050565b6000612ed882612f6b565b9150612ee383612f6b565b925082821015612ef657612ef5613094565b5b828203905092915050565b6000612f0c82612f4b565b9050919050565b60008115159050919050565b60007fffffffff0000000000000000000000000000000000000000000000000000000082169050919050565b600073ffffffffffffffffffffffffffffffffffffffff82169050919050565b6000819050919050565b82818337600083830152505050565b60005b83811015612fa2578082015181840152602081019050612f87565b83811115612fb1576000848401525b50505050565b60006002820490506001821680612fcf57607f821691505b60208210811415612fe357612fe26130f2565b5b50919050565b612ff282613150565b810181811067ffffffffffffffff8211171561301157613010613121565b5b80604052505050565b600061302582612f6b565b91507fffffffffffffffffffffffffffffffffffffffffffffffffffffffffffffffff82141561305857613057613094565b5b600182019050919050565b600061306e82612f6b565b915061307983612f6b565b925082613089576130886130c3565b5b828206905092915050565b7f4e487b7100000000000000000000000000000000000000000000000000000000600052601160045260246000fd5b7f4e487b7100000000000000000000000000000000000000000000000000000000600052601260045260246000fd5b7f4e487b7100000000000000000000000000000000000000000000000000000000600052602260045260246000fd5b7f4e487b7100000000000000000000000000000000000000000000000000000000600052604160045260246000fd5b6000601f19601f8301169050919050565b7f4e667420616c726561647920666f722073616c65000000000000000000000000600082015250565b7f4552433732313a207472616e7366657220746f206e6f6e20455243373231526560008201527f63656976657220696d706c656d656e7465720000000000000000000000000000602082015250565b7f4552433732313a207472616e736665722066726f6d20696e636f72726563742060008201527f6f776e6572000000000000000000000000000000000000000000000000000000602082015250565b7f4552433732313a20746f6b656e20616c7265616479206d696e74656400000000600082015250565b7f4e6f74206f776e6572206f66204e667400000000000000000000000000000000600082015250565b7f4552433732313a207472616e7366657220746f20746865207a65726f2061646460008201527f7265737300000000000000000000000000000000000000000000000000000000602082015250565b7f4552433732313a20617070726f766520746f2063616c6c657200000000000000600082015250565b7f4552433732313a206f70657261746f7220717565727920666f72206e6f6e657860008201527f697374656e7420746f6b656e0000000000000000000000000000000000000000602082015250565b7f4552433732313a20617070726f76652063616c6c6572206973206e6f74206f7760008201527f6e6572206e6f7220617070726f76656420666f7220616c6c0000000000000000602082015250565b7f4552433732313a2062616c616e636520717565727920666f7220746865207a6560008201527f726f206164647265737300000000000000000000000000000000000000000000602082015250565b7f4552433732313a206f776e657220717565727920666f72206e6f6e657869737460008201527f656e7420746f6b656e0000000000000000000000000000000000000000000000602082015250565b7f45524337323155524953746f726167653a2055524920736574206f66206e6f6e60008201527f6578697374656e7420746f6b656e000000000000000000000000000000000000602082015250565b7f4552433732313a206d696e7420746f20746865207a65726f2061646472657373600082015250565b7f45524337323155524953746f726167653a2055524920717565727920666f722060008201527f6e6f6e6578697374656e7420746f6b656e000000000000000000000000000000602082015250565b7f4552433732313a20617070726f76656420717565727920666f72206e6f6e657860008201527f697374656e7420746f6b656e0000000000000000000000000000000000000000602082015250565b7f4552433732314d657461646174613a2055524920717565727920666f72206e6f60008201527f6e6578697374656e7420746f6b656e0000000000000000000000000000000000602082015250565b7f4552433732313a20617070726f76616c20746f2063757272656e74206f776e6560008201527f7200000000000000000000000000000000000000000000000000000000000000602082015250565b7f4552433732313a207472616e736665722063616c6c6572206973206e6f74206f60008201527f776e6572206e6f7220617070726f766564000000000000000000000000000000602082015250565b7f4e6674206e6f7420666f722073616c6500000000000000000000000000000000600082015250565b7f5072696365206d757374206265206174206c6561737420312077656900000000600082015250565b61368c81612f01565b811461369757600080fd5b50565b6136a381612f13565b81146136ae57600080fd5b50565b6136ba81612f1f565b81146136c557600080fd5b50565b6136d181612f6b565b81146136dc57600080fd5b5056fea2646970667358221220628cbdc31a7fed858ae053a8fba57ae26f31a97e41fb783c2a5a3e0aa5c0c4a064736f6c63430008040033",
  "linkReferences": {},
  "deployedLinkReferences": {}
}