{
  "_format": "hh-sol-artifact-1",
  "contractName": "TriggerProtocol",
  "sourceName": "contracts/TriggerProtocol.sol",
  "abi": [
    {
      "inputs": [],
      "stateMutability": "nonpayable",
      "type": "constructor"
    },
    {
      "anonymous": false,
      "inputs": [
        {
          "indexed": false,
          "internalType": "uint256",
          "name": "portalId",
          "type": "uint256"
        },
        {
          "indexed": false,
          "internalType": "uint256",
          "name": "tokenId",
          "type": "uint256"
        },
        {
          "indexed": false,
          "internalType": "string",
          "name": "tokenURI",
          "type": "string"
        },
        {
          "indexed": false,
          "internalType": "address",
          "name": "mintedBy",
          "type": "address"
        },
        {
          "indexed": false,
          "internalType": "address",
          "name": "currentOwner",
          "type": "address"
        },
        {
          "indexed": false,
          "internalType": "address",
          "name": "previousOwner",
          "type": "address"
        },
        {
          "indexed": false,
          "internalType": "bool",
          "name": "forSale",
          "type": "bool"
        },
        {
          "indexed": false,
          "internalType": "uint256",
          "name": "price",
          "type": "uint256"
        }
      ],
      "name": "NFTminted",
      "type": "event"
    },
    {
      "anonymous": false,
      "inputs": [
        {
          "indexed": false,
          "internalType": "string",
          "name": "dbThreadID",
          "type": "string"
        },
        {
          "indexed": false,
          "internalType": "uint256",
          "name": "appID",
          "type": "uint256"
        },
        {
          "indexed": false,
          "internalType": "uint256",
          "name": "createdAt",
          "type": "uint256"
        },
        {
          "indexed": false,
          "internalType": "address",
          "name": "createdBy",
          "type": "address"
        },
        {
          "indexed": false,
          "internalType": "uint256",
          "name": "portalId",
          "type": "uint256"
        }
      ],
      "name": "PortalCreated",
      "type": "event"
    },
    {
      "anonymous": false,
      "inputs": [
        {
          "indexed": false,
          "internalType": "uint256",
          "name": "portalId",
          "type": "uint256"
        },
        {
          "indexed": false,
          "internalType": "address",
          "name": "joiner",
          "type": "address"
        }
      ],
      "name": "PortalJoined",
      "type": "event"
    },
    {
      "anonymous": false,
      "inputs": [
        {
          "indexed": false,
          "internalType": "uint256",
          "name": "portalId",
          "type": "uint256"
        },
        {
          "indexed": false,
          "internalType": "address",
          "name": "claimer",
          "type": "address"
        },
        {
          "indexed": false,
          "internalType": "uint256",
          "name": "amount",
          "type": "uint256"
        }
      ],
      "name": "PortalXPClaimed",
      "type": "event"
    },
    {
      "anonymous": false,
      "inputs": [
        {
          "indexed": false,
          "internalType": "uint256",
          "name": "portalId",
          "type": "uint256"
        },
        {
          "indexed": false,
          "internalType": "address",
          "name": "staker",
          "type": "address"
        },
        {
          "indexed": false,
          "internalType": "uint256",
          "name": "amount",
          "type": "uint256"
        },
        {
          "indexed": false,
          "internalType": "uint256",
          "name": "timestamp",
          "type": "uint256"
        }
      ],
      "name": "Staked",
      "type": "event"
    },
    {
      "inputs": [
        {
          "internalType": "uint256",
          "name": "tokenId",
          "type": "uint256"
        }
      ],
      "name": "buyNft",
      "outputs": [],
      "stateMutability": "nonpayable",
      "type": "function"
    },
    {
      "inputs": [
        {
          "internalType": "uint256",
          "name": "_portalId",
          "type": "uint256"
        }
      ],
      "name": "claimRewards",
      "outputs": [],
      "stateMutability": "nonpayable",
      "type": "function"
    },
    {
      "inputs": [
        {
          "internalType": "uint256",
          "name": "_portalId",
          "type": "uint256"
        },
        {
          "internalType": "uint256",
          "name": "_amount",
          "type": "uint256"
        }
      ],
      "name": "claimXpToken",
      "outputs": [],
      "stateMutability": "nonpayable",
      "type": "function"
    },
    {
      "inputs": [
        {
          "internalType": "string",
          "name": "_dbThreadID",
          "type": "string"
        },
        {
          "internalType": "uint256",
          "name": "_appID",
          "type": "uint256"
        }
      ],
      "name": "createPortal",
      "outputs": [],
      "stateMutability": "nonpayable",
      "type": "function"
    },
    {
      "inputs": [
        {
          "internalType": "uint256",
          "name": "_portalId",
          "type": "uint256"
        }
      ],
      "name": "joinPortal",
      "outputs": [],
      "stateMutability": "nonpayable",
      "type": "function"
    },
    {
      "inputs": [
        {
          "internalType": "string",
          "name": "streamId",
          "type": "string"
        }
      ],
      "name": "linkStreamAccount",
      "outputs": [],
      "stateMutability": "nonpayable",
      "type": "function"
    },
    {
      "inputs": [
        {
          "internalType": "uint256",
          "name": "_portalId",
          "type": "uint256"
        },
        {
          "internalType": "string",
          "name": "_tokenURI",
          "type": "string"
        },
        {
          "internalType": "uint256",
          "name": "_price",
          "type": "uint256"
        }
      ],
      "name": "mintNFT",
      "outputs": [],
      "stateMutability": "nonpayable",
      "type": "function"
    },
    {
      "inputs": [
        {
          "internalType": "address",
          "name": "_triggerTokenAddress",
          "type": "address"
        },
        {
          "internalType": "address",
          "name": "_triggerXpTokenAddress",
          "type": "address"
        },
        {
          "internalType": "address",
          "name": "_triggerNFTokenAddress",
          "type": "address"
        }
      ],
      "name": "setFactoryAddresses",
      "outputs": [],
      "stateMutability": "nonpayable",
      "type": "function"
    },
    {
      "inputs": [
        {
          "internalType": "uint256",
          "name": "_portalId",
          "type": "uint256"
        },
        {
          "internalType": "uint256",
          "name": "_amount",
          "type": "uint256"
        }
      ],
      "name": "stake",
      "outputs": [],
      "stateMutability": "nonpayable",
      "type": "function"
    },
    {
      "inputs": [
        {
          "internalType": "uint256",
          "name": "price",
          "type": "uint256"
        },
        {
          "internalType": "uint256",
          "name": "tokenId",
          "type": "uint256"
        }
      ],
      "name": "toggleSale",
      "outputs": [],
      "stateMutability": "nonpayable",
      "type": "function"
    },
    {
      "inputs": [],
      "name": "triggerNFTtokenFactory",
      "outputs": [
        {
          "internalType": "contract IERC721",
          "name": "",
          "type": "address"
        }
      ],
      "stateMutability": "view",
      "type": "function"
    },
    {
      "inputs": [],
      "name": "triggerTokenFactory",
      "outputs": [
        {
          "internalType": "contract IERC20",
          "name": "",
          "type": "address"
        }
      ],
      "stateMutability": "view",
      "type": "function"
    },
    {
      "inputs": [],
      "name": "triggerXpTokenFactory",
      "outputs": [
        {
          "internalType": "contract IERC20",
          "name": "",
          "type": "address"
        }
      ],
      "stateMutability": "view",
      "type": "function"
    },
    {
      "inputs": [
        {
          "internalType": "uint256",
          "name": "price",
          "type": "uint256"
        },
        {
          "internalType": "uint256",
          "name": "tokenId",
          "type": "uint256"
        }
      ],
      "name": "updateListingPrice",
      "outputs": [],
      "stateMutability": "nonpayable",
      "type": "function"
    },
    {
      "inputs": [
        {
          "internalType": "uint256",
          "name": "_portalId",
          "type": "uint256"
        }
      ],
      "name": "withdraw",
      "outputs": [],
      "stateMutability": "nonpayable",
      "type": "function"
    }
  ],
  "bytecode": "0x60806040526001600555606460065534801561001a57600080fd5b5033600460006101000a81548173ffffffffffffffffffffffffffffffffffffffff021916908373ffffffffffffffffffffffffffffffffffffffff160217905550612f388061006b6000396000f3fe608060405234801561001057600080fd5b50600436106100f55760003560e01c80639812cc0311610097578063c1b6371311610066578063c1b6371314610232578063c460494314610250578063de27d2e71461026c578063fbf1343c14610288576100f5565b80639812cc03146101be57806399d8ea69146101dc578063af7c0366146101f8578063ba89c91614610216576100f5565b80635c3c796d116100d35780635c3c796d1461014e5780636f0393051461016a5780637b0472f014610186578063835607b0146101a2576100f5565b80630962ef79146100fa578063243adbdd146101165780632e1a7d4d14610132575b600080fd5b610114600480360381019061010f91906121cd565b6102a4565b005b610130600480360381019061012b91906121cd565b610446565b005b61014c600480360381019061014791906121cd565b610823565b005b61016860048036038101906101639190612286565b610da1565b005b610184600480360381019061017f9190612286565b610e34565b005b6101a0600480360381019061019b9190612286565b611244565b005b6101bc60048036038101906101b7919061207e565b611498565b005b6101c66114eb565b6040516101d3919061257a565b60405180910390f35b6101f660048036038101906101f191906121cd565b611511565b005b610200611604565b60405161020d9190612595565b60405180910390f35b610230600480360381019061022b9190612006565b61162a565b005b61023a611782565b604051610247919061257a565b60405180910390f35b61026a60048036038101906102659190612286565b6117a8565b005b610286600480360381019061028191906120c3565b61183b565b005b6102a2600480360381019061029d919061221f565b61196a565b005b6000600d600083815260200190815260200160002060003373ffffffffffffffffffffffffffffffffffffffff1673ffffffffffffffffffffffffffffffffffffffff1681526020019081526020016000205490506000811161033c576040517f08c379a000000000000000000000000000000000000000000000000000000000815260040161033390612688565b60405180910390fd5b600260009054906101000a900473ffffffffffffffffffffffffffffffffffffffff1673ffffffffffffffffffffffffffffffffffffffff1663a9059cbb33836040518363ffffffff1660e01b8152600401610399929190612551565b602060405180830381600087803b1580156103b357600080fd5b505af11580156103c7573d6000803e3d6000fd5b505050506040513d601f19601f820116820180604052508101906103eb9190612055565b506000600d600084815260200190815260200160002060003373ffffffffffffffffffffffffffffffffffffffff1673ffffffffffffffffffffffffffffffffffffffff168152602001908152602001600020819055505050565b6000806000806000806000600360009054906101000a900473ffffffffffffffffffffffffffffffffffffffff1673ffffffffffffffffffffffffffffffffffffffff1663ba9a35cd896040518263ffffffff1660e01b81526004016104ac91906127a8565b60006040518083038186803b1580156104c457600080fd5b505afa1580156104d8573d6000803e3d6000fd5b505050506040513d6000823e3d601f19601f820116820180604052508101906105019190612117565b965096509650965096509650965080600160009054906101000a900473ffffffffffffffffffffffffffffffffffffffff1673ffffffffffffffffffffffffffffffffffffffff1663dd62ed3e33306040518363ffffffff1660e01b815260040161056d9291906124f1565b60206040518083038186803b15801561058557600080fd5b505afa158015610599573d6000803e3d6000fd5b505050506040513d601f19601f820116820180604052508101906105bd91906121f6565b10156105fe576040517f08c379a00000000000000000000000000000000000000000000000000000000081526004016105f590612788565b60405180910390fd5b6000612710600654836106119190612a0f565b61061b91906129de565b9050600360009054906101000a900473ffffffffffffffffffffffffffffffffffffffff1673ffffffffffffffffffffffffffffffffffffffff1663249e10c58a6040518263ffffffff1660e01b815260040161067891906127a8565b600060405180830381600087803b15801561069257600080fd5b505af11580156106a6573d6000803e3d6000fd5b50505050600160009054906101000a900473ffffffffffffffffffffffffffffffffffffffff1673ffffffffffffffffffffffffffffffffffffffff166323b872dd3387856040518463ffffffff1660e01b81526004016107099392919061251a565b602060405180830381600087803b15801561072357600080fd5b505af1158015610737573d6000803e3d6000fd5b505050506040513d601f19601f8201168201806040525081019061075b9190612055565b50600160009054906101000a900473ffffffffffffffffffffffffffffffffffffffff1673ffffffffffffffffffffffffffffffffffffffff166323b872dd3330846040518463ffffffff1660e01b81526004016107bb9392919061251a565b602060405180830381600087803b1580156107d557600080fd5b505af11580156107e9573d6000803e3d6000fd5b505050506040513d601f19601f8201168201806040525081019061080d9190612055565b506108188782611b4b565b505050505050505050565b80600115156009600083815260200190815260200160002060003373ffffffffffffffffffffffffffffffffffffffff1673ffffffffffffffffffffffffffffffffffffffff16815260200190815260200160002060009054906101000a900460ff161515146108c8576040517f08c379a00000000000000000000000000000000000000000000000000000000081526004016108bf90612648565b60405180910390fd5b60008060005b600c600086815260200190815260200160002080549050811015610a6e573373ffffffffffffffffffffffffffffffffffffffff16600c6000878152602001908152602001600020828154811061094e577f4e487b7100000000000000000000000000000000000000000000000000000000600052603260045260246000fd5b906000526020600020906003020160000160009054906101000a900473ffffffffffffffffffffffffffffffffffffffff1673ffffffffffffffffffffffffffffffffffffffff161415610a5b57600c600086815260200190815260200160002081815481106109e7577f4e487b7100000000000000000000000000000000000000000000000000000000600052603260045260246000fd5b9060005260206000209060030201600101549250600c60008681526020019081526020016000208181548110610a46577f4e487b7100000000000000000000000000000000000000000000000000000000600052603260045260246000fd5b90600052602060002090600302016002015491505b8080610a6690612be4565b9150506108ce565b5060008211610ab2576040517f08c379a0000000000000000000000000000000000000000000000000000000008152600401610aa990612748565b60405180910390fd5b60055481610ac09190612988565b4211610b01576040517f08c379a0000000000000000000000000000000000000000000000000000000008152600401610af890612708565b60405180910390fd5b600260009054906101000a900473ffffffffffffffffffffffffffffffffffffffff1673ffffffffffffffffffffffffffffffffffffffff1663a9059cbb33846040518363ffffffff1660e01b8152600401610b5e929190612551565b602060405180830381600087803b158015610b7857600080fd5b505af1158015610b8c573d6000803e3d6000fd5b505050506040513d601f19601f82011682018060405250810190610bb09190612055565b5060005b600c600086815260200190815260200160002080549050811015610d29573373ffffffffffffffffffffffffffffffffffffffff16600c60008781526020019081526020016000208281548110610c34577f4e487b7100000000000000000000000000000000000000000000000000000000600052603260045260246000fd5b906000526020600020906003020160000160009054906101000a900473ffffffffffffffffffffffffffffffffffffffff1673ffffffffffffffffffffffffffffffffffffffff161415610d1657600c60008681526020019081526020016000208181548110610ccd577f4e487b7100000000000000000000000000000000000000000000000000000000600052603260045260246000fd5b9060005260206000209060030201600080820160006101000a81549073ffffffffffffffffffffffffffffffffffffffff02191690556001820160009055600282016000905550505b8080610d2190612be4565b915050610bb4565b5081600e60008681526020019081526020016000206000828254610d4d9190612a69565b92505081905550610d5d846102a4565b7f17700ceb1658b18206f427c1578048e87504106b14ec69e9b4586d9a95174a328433600080604051610d9394939291906127ec565b60405180910390a150505050565b600360009054906101000a900473ffffffffffffffffffffffffffffffffffffffff1673ffffffffffffffffffffffffffffffffffffffff16635c3c796d83836040518363ffffffff1660e01b8152600401610dfe929190612868565b600060405180830381600087803b158015610e1857600080fd5b505af1158015610e2c573d6000803e3d6000fd5b505050505050565b81600115156009600083815260200190815260200160002060003373ffffffffffffffffffffffffffffffffffffffff1673ffffffffffffffffffffffffffffffffffffffff16815260200190815260200160002060009054906101000a900460ff16151514610ed9576040517f08c379a0000000000000000000000000000000000000000000000000000000008152600401610ed090612648565b60405180910390fd5b6000600260009054906101000a900473ffffffffffffffffffffffffffffffffffffffff1673ffffffffffffffffffffffffffffffffffffffff166370a08231306040518263ffffffff1660e01b8152600401610f3691906124d6565b60206040518083038186803b158015610f4e57600080fd5b505afa158015610f62573d6000803e3d6000fd5b505050506040513d601f19601f82011682018060405250810190610f8691906121f6565b90506000600b600086815260200190815260200160002060003373ffffffffffffffffffffffffffffffffffffffff1673ffffffffffffffffffffffffffffffffffffffff16815260200190815260200160002054905060008411611020576040517f08c379a000000000000000000000000000000000000000000000000000000000815260040161101790612668565b60405180910390fd5b6000811115611064576040517f08c379a000000000000000000000000000000000000000000000000000000000815260040161105b906126a8565b60405180910390fd5b818411156110a7576040517f08c379a000000000000000000000000000000000000000000000000000000000815260040161109e90612768565b60405180910390fd5b6000600260009054906101000a900473ffffffffffffffffffffffffffffffffffffffff1673ffffffffffffffffffffffffffffffffffffffff1663a9059cbb33876040518363ffffffff1660e01b8152600401611106929190612551565b602060405180830381600087803b15801561112057600080fd5b505af1158015611134573d6000803e3d6000fd5b505050506040513d601f19601f820116820180604052508101906111589190612055565b90508061119a576040517f08c379a0000000000000000000000000000000000000000000000000000000008152600401611191906126c8565b60405180910390fd5b84600b600088815260200190815260200160002060003373ffffffffffffffffffffffffffffffffffffffff1673ffffffffffffffffffffffffffffffffffffffff16815260200190815260200160002060008282546111fa9190612988565b925050819055507fd5d662d8a3f02d24c0d35ea90214cabdb0478c52400cd3608f713525add3fd3f86338760405161123493929190612831565b60405180910390a1505050505050565b81600115156009600083815260200190815260200160002060003373ffffffffffffffffffffffffffffffffffffffff1673ffffffffffffffffffffffffffffffffffffffff16815260200190815260200160002060009054906101000a900460ff161515146112e9576040517f08c379a00000000000000000000000000000000000000000000000000000000081526004016112e090612648565b60405180910390fd5b600260009054906101000a900473ffffffffffffffffffffffffffffffffffffffff1673ffffffffffffffffffffffffffffffffffffffff1663a9059cbb30846040518363ffffffff1660e01b8152600401611346929190612551565b602060405180830381600087803b15801561136057600080fd5b505af1158015611374573d6000803e3d6000fd5b505050506040513d601f19601f820116820180604052508101906113989190612055565b50600060405180606001604052803373ffffffffffffffffffffffffffffffffffffffff168152602001848152602001428152509050600c600085815260200190815260200160002081908060018154018082558091505060019003906000526020600020906003020160009091909190915060008201518160000160006101000a81548173ffffffffffffffffffffffffffffffffffffffff021916908373ffffffffffffffffffffffffffffffffffffffff1602179055506020820151816001015560408201518160020155505082600e6000868152602001908152602001600020600082825461148b9190612988565b9250508190555050505050565b8181600760003373ffffffffffffffffffffffffffffffffffffffff1673ffffffffffffffffffffffffffffffffffffffff16815260200190815260200160002091906114e6929190611d5a565b505050565b600160009054906101000a900473ffffffffffffffffffffffffffffffffffffffff1681565b600061151c82611cd8565b90508061155e576040517f08c379a0000000000000000000000000000000000000000000000000000000008152600401611555906126e8565b60405180910390fd5b60016009600084815260200190815260200160002060003373ffffffffffffffffffffffffffffffffffffffff1673ffffffffffffffffffffffffffffffffffffffff16815260200190815260200160002060006101000a81548160ff0219169083151502179055507f4df3f388017aea7c6eb201cafda569f9a566e4f75413197890aeb242e04b26b382336040516115f89291906127c3565b60405180910390a15050565b600360009054906101000a900473ffffffffffffffffffffffffffffffffffffffff1681565b600460009054906101000a900473ffffffffffffffffffffffffffffffffffffffff1673ffffffffffffffffffffffffffffffffffffffff163373ffffffffffffffffffffffffffffffffffffffff16146116ba576040517f08c379a00000000000000000000000000000000000000000000000000000000081526004016116b190612728565b60405180910390fd5b82600160006101000a81548173ffffffffffffffffffffffffffffffffffffffff021916908373ffffffffffffffffffffffffffffffffffffffff16021790555081600260006101000a81548173ffffffffffffffffffffffffffffffffffffffff021916908373ffffffffffffffffffffffffffffffffffffffff16021790555080600360006101000a81548173ffffffffffffffffffffffffffffffffffffffff021916908373ffffffffffffffffffffffffffffffffffffffff160217905550505050565b600260009054906101000a900473ffffffffffffffffffffffffffffffffffffffff1681565b600360009054906101000a900473ffffffffffffffffffffffffffffffffffffffff1673ffffffffffffffffffffffffffffffffffffffff1663c460494383836040518363ffffffff1660e01b8152600401611805929190612868565b600060405180830381600087803b15801561181f57600080fd5b505af1158015611833573d6000803e3d6000fd5b505050505050565b6118456000611d0a565b60006118516000611d20565b9050600060405180608001604052808581526020013373ffffffffffffffffffffffffffffffffffffffff168152602001848152602001428152509050806008600084815260200190815260200160002060008201518160000190805190602001906118be929190611de0565b5060208201518160010160006101000a81548173ffffffffffffffffffffffffffffffffffffffff021916908373ffffffffffffffffffffffffffffffffffffffff16021790555060408201518160020155606082015181600301559050507f6df02dfcb99755e8386e24285cab653ac53b4e7a9b7f8c831be73b2028fcea618484836060015184602001518660405161195c9594939291906125ee565b60405180910390a150505050565b82600115156009600083815260200190815260200160002060003373ffffffffffffffffffffffffffffffffffffffff1673ffffffffffffffffffffffffffffffffffffffff16815260200190815260200160002060009054906101000a900460ff16151514611a0f576040517f08c379a0000000000000000000000000000000000000000000000000000000008152600401611a0690612648565b60405180910390fd5b6000600360009054906101000a900473ffffffffffffffffffffffffffffffffffffffff1673ffffffffffffffffffffffffffffffffffffffff1663977922d28587866040518463ffffffff1660e01b8152600401611a70939291906125b0565b602060405180830381600087803b158015611a8a57600080fd5b505af1158015611a9e573d6000803e3d6000fd5b505050506040513d601f19601f82011682018060405250810190611ac291906121f6565b9050600a60008681526020019081526020016000208190806001815401808255809150506001900390600052602060002001600090919091909150557f6360c0331f1ee58346501ff2d31b6700442be8ad4863effec2aa56d48171754185828633333360018a604051611b3c989796959493929190612891565b60405180910390a15050505050565b6000806000600c6000868152602001908152602001600020805490501415611b74575050611cd4565b60005b600c600086815260200190815260200160002080549050811015611cd057611c2a600e600087815260200190815260200160002054611c1c6064600c60008a81526020019081526020016000208581548110611bfc577f4e487b7100000000000000000000000000000000000000000000000000000000600052603260045260246000fd5b906000526020600020906003020160010154611d2e90919063ffffffff16565b611d4490919063ffffffff16565b9250611c666103e8611c58611c49600a87611d2e90919063ffffffff16565b87611d2e90919063ffffffff16565b611d4490919063ffffffff16565b915081600d600087815260200190815260200160002060003373ffffffffffffffffffffffffffffffffffffffff1673ffffffffffffffffffffffffffffffffffffffff168152602001908152602001600020819055508080611cc890612be4565b915050611b77565b5050505b5050565b600080600860008481526020019081526020016000206002015414611d005760019050611d05565b600090505b919050565b6001816000016000828254019250508190555050565b600081600001549050919050565b60008183611d3c9190612a0f565b905092915050565b60008183611d5291906129de565b905092915050565b828054611d6690612b81565b90600052602060002090601f016020900481019282611d885760008555611dcf565b82601f10611da157803560ff1916838001178555611dcf565b82800160010185558215611dcf579182015b82811115611dce578235825591602001919060010190611db3565b5b509050611ddc9190611e66565b5090565b828054611dec90612b81565b90600052602060002090601f016020900481019282611e0e5760008555611e55565b82601f10611e2757805160ff1916838001178555611e55565b82800160010185558215611e55579182015b82811115611e54578251825591602001919060010190611e39565b5b509050611e629190611e66565b5090565b5b80821115611e7f576000816000905550600101611e67565b5090565b6000611e96611e918461293b565b612916565b905082815260208101848484011115611eae57600080fd5b611eb9848285612b3f565b509392505050565b6000611ed4611ecf8461293b565b612916565b905082815260208101848484011115611eec57600080fd5b611ef7848285612b4e565b509392505050565b600081359050611f0e81612ebd565b92915050565b600081519050611f2381612ebd565b92915050565b600081519050611f3881612ed4565b92915050565b60008083601f840112611f5057600080fd5b8235905067ffffffffffffffff811115611f6957600080fd5b602083019150836001820283011115611f8157600080fd5b9250929050565b600082601f830112611f9957600080fd5b8135611fa9848260208601611e83565b91505092915050565b600082601f830112611fc357600080fd5b8151611fd3848260208601611ec1565b91505092915050565b600081359050611feb81612eeb565b92915050565b60008151905061200081612eeb565b92915050565b60008060006060848603121561201b57600080fd5b600061202986828701611eff565b935050602061203a86828701611eff565b925050604061204b86828701611eff565b9150509250925092565b60006020828403121561206757600080fd5b600061207584828501611f29565b91505092915050565b6000806020838503121561209157600080fd5b600083013567ffffffffffffffff8111156120ab57600080fd5b6120b785828601611f3e565b92509250509250929050565b600080604083850312156120d657600080fd5b600083013567ffffffffffffffff8111156120f057600080fd5b6120fc85828601611f88565b925050602061210d85828601611fdc565b9150509250929050565b600080600080600080600060e0888a03121561213257600080fd5b600088015167ffffffffffffffff81111561214c57600080fd5b6121588a828b01611fb2565b97505060206121698a828b01611ff1565b965050604061217a8a828b01611f14565b955050606061218b8a828b01611f14565b945050608061219c8a828b01611f14565b93505060a06121ad8a828b01611f29565b92505060c06121be8a828b01611ff1565b91505092959891949750929550565b6000602082840312156121df57600080fd5b60006121ed84828501611fdc565b91505092915050565b60006020828403121561220857600080fd5b600061221684828501611ff1565b91505092915050565b60008060006060848603121561223457600080fd5b600061224286828701611fdc565b935050602084013567ffffffffffffffff81111561225f57600080fd5b61226b86828701611f88565b925050604061227c86828701611fdc565b9150509250925092565b6000806040838503121561229957600080fd5b60006122a785828601611fdc565b92505060206122b885828601611fdc565b9150509250929050565b6122cb81612a9d565b82525050565b6122da81612aaf565b82525050565b6122e981612ae5565b82525050565b6122f881612b09565b82525050565b61230781612b2d565b82525050565b60006123188261296c565b6123228185612977565b9350612332818560208601612b4e565b61233b81612ce9565b840191505092915050565b6000612353601183612977565b915061235e82612cfa565b602082019050919050565b6000612376600e83612977565b915061238182612d23565b602082019050919050565b6000612399601383612977565b91506123a482612d4c565b602082019050919050565b60006123bc601883612977565b91506123c782612d75565b602082019050919050565b60006123df601283612977565b91506123ea82612d9e565b602082019050919050565b6000612402601383612977565b915061240d82612dc7565b602082019050919050565b6000612425601b83612977565b915061243082612df0565b602082019050919050565b6000612448600983612977565b915061245382612e19565b602082019050919050565b600061246b601083612977565b915061247682612e42565b602082019050919050565b600061248e602083612977565b915061249982612e6b565b602082019050919050565b60006124b1601483612977565b91506124bc82612e94565b602082019050919050565b6124d081612adb565b82525050565b60006020820190506124eb60008301846122c2565b92915050565b600060408201905061250660008301856122c2565b61251360208301846122c2565b9392505050565b600060608201905061252f60008301866122c2565b61253c60208301856122c2565b61254960408301846124c7565b949350505050565b600060408201905061256660008301856122c2565b61257360208301846124c7565b9392505050565b600060208201905061258f60008301846122e0565b92915050565b60006020820190506125aa60008301846122ef565b92915050565b600060608201905081810360008301526125ca818661230d565b90506125d960208301856124c7565b6125e660408301846124c7565b949350505050565b600060a0820190508181036000830152612608818861230d565b905061261760208301876124c7565b61262460408301866124c7565b61263160608301856122c2565b61263e60808301846124c7565b9695505050505050565b6000602082019050818103600083015261266181612346565b9050919050565b6000602082019050818103600083015261268181612369565b9050919050565b600060208201905081810360008301526126a18161238c565b9050919050565b600060208201905081810360008301526126c1816123af565b9050919050565b600060208201905081810360008301526126e1816123d2565b9050919050565b60006020820190508181036000830152612701816123f5565b9050919050565b6000602082019050818103600083015261272181612418565b9050919050565b600060208201905081810360008301526127418161243b565b9050919050565b600060208201905081810360008301526127618161245e565b9050919050565b6000602082019050818103600083015261278181612481565b9050919050565b600060208201905081810360008301526127a1816124a4565b9050919050565b60006020820190506127bd60008301846124c7565b92915050565b60006040820190506127d860008301856124c7565b6127e560208301846122c2565b9392505050565b600060808201905061280160008301876124c7565b61280e60208301866122c2565b61281b60408301856122fe565b61282860608301846122fe565b95945050505050565b600060608201905061284660008301866124c7565b61285360208301856122c2565b61286060408301846124c7565b949350505050565b600060408201905061287d60008301856124c7565b61288a60208301846124c7565b9392505050565b6000610100820190506128a7600083018b6124c7565b6128b4602083018a6124c7565b81810360408301526128c6818961230d565b90506128d560608301886122c2565b6128e260808301876122c2565b6128ef60a08301866122c2565b6128fc60c08301856122d1565b61290960e08301846124c7565b9998505050505050505050565b6000612920612931565b905061292c8282612bb3565b919050565b6000604051905090565b600067ffffffffffffffff82111561295657612955612cba565b5b61295f82612ce9565b9050602081019050919050565b600081519050919050565b600082825260208201905092915050565b600061299382612adb565b915061299e83612adb565b9250827fffffffffffffffffffffffffffffffffffffffffffffffffffffffffffffffff038211156129d3576129d2612c2d565b5b828201905092915050565b60006129e982612adb565b91506129f483612adb565b925082612a0457612a03612c5c565b5b828204905092915050565b6000612a1a82612adb565b9150612a2583612adb565b9250817fffffffffffffffffffffffffffffffffffffffffffffffffffffffffffffffff0483118215151615612a5e57612a5d612c2d565b5b828202905092915050565b6000612a7482612adb565b9150612a7f83612adb565b925082821015612a9257612a91612c2d565b5b828203905092915050565b6000612aa882612abb565b9050919050565b60008115159050919050565b600073ffffffffffffffffffffffffffffffffffffffff82169050919050565b6000819050919050565b6000612af082612af7565b9050919050565b6000612b0282612abb565b9050919050565b6000612b1482612b1b565b9050919050565b6000612b2682612abb565b9050919050565b6000612b3882612adb565b9050919050565b82818337600083830152505050565b60005b83811015612b6c578082015181840152602081019050612b51565b83811115612b7b576000848401525b50505050565b60006002820490506001821680612b9957607f821691505b60208210811415612bad57612bac612c8b565b5b50919050565b612bbc82612ce9565b810181811067ffffffffffffffff82111715612bdb57612bda612cba565b5b80604052505050565b6000612bef82612adb565b91507fffffffffffffffffffffffffffffffffffffffffffffffffffffffffffffffff821415612c2257612c21612c2d565b5b600182019050919050565b7f4e487b7100000000000000000000000000000000000000000000000000000000600052601160045260246000fd5b7f4e487b7100000000000000000000000000000000000000000000000000000000600052601260045260246000fd5b7f4e487b7100000000000000000000000000000000000000000000000000000000600052602260045260246000fd5b7f4e487b7100000000000000000000000000000000000000000000000000000000600052604160045260246000fd5b6000601f19601f8301169050919050565b7f506f7274616c206e6f74206a6f696e6564000000000000000000000000000000600082015250565b7f496e76616c696420416d6f756e74000000000000000000000000000000000000600082015250565b7f4e6f20636c61696d626c65207265776172647300000000000000000000000000600082015250565b7f585020546f6b656e20616c726561647920636c61696d65640000000000000000600082015250565b7f4661696c656420746f207472616e736665720000000000000000000000000000600082015250565b7f506f7274616c20646f65736e7420657869737400000000000000000000000000600082015250565b7f6c6f636b696e20706572696f6420686173206e6f7420656e6465640000000000600082015250565b7f4e6f74206f776e65720000000000000000000000000000000000000000000000600082015250565b7f4e6f20616d6f756e74207374616b656400000000000000000000000000000000600082015250565b7f4e6f7420656e6f75676820746f6b656e7320696e207468652072657365727665600082015250565b7f706c6561736520617070726f766520746f6b656e000000000000000000000000600082015250565b612ec681612a9d565b8114612ed157600080fd5b50565b612edd81612aaf565b8114612ee857600080fd5b50565b612ef481612adb565b8114612eff57600080fd5b5056fea2646970667358221220c8c04da70553f6a171107d184611fe58b7d2f6cf08328b067d88e6538caa5d9664736f6c63430008040033",
  "linkReferences": {},
  "deployedLinkReferences": {}
}