{
  "_format": "hh-sol-artifact-1",
  "contractName": "TriggerProtocol",
  "sourceName": "contracts/TriggerProtocol.sol",
  "abi": [
    {
      "inputs": [],
      "stateMutability": "nonpayable",
      "type": "constructor"
    },
    {
      "anonymous": false,
      "inputs": [
        {
          "indexed": false,
          "internalType": "uint256",
          "name": "portalId",
          "type": "uint256"
        },
        {
          "indexed": false,
          "internalType": "uint256",
          "name": "tokenId",
          "type": "uint256"
        },
        {
          "indexed": false,
          "internalType": "string",
          "name": "tokenURI",
          "type": "string"
        },
        {
          "indexed": false,
          "internalType": "address",
          "name": "mintedBy",
          "type": "address"
        },
        {
          "indexed": false,
          "internalType": "address",
          "name": "currentOwner",
          "type": "address"
        },
        {
          "indexed": false,
          "internalType": "address",
          "name": "previousOwner",
          "type": "address"
        },
        {
          "indexed": false,
          "internalType": "bool",
          "name": "forSale",
          "type": "bool"
        },
        {
          "indexed": false,
          "internalType": "uint256",
          "name": "price",
          "type": "uint256"
        }
      ],
      "name": "NFTminted",
      "type": "event"
    },
    {
      "anonymous": false,
      "inputs": [
        {
          "indexed": false,
          "internalType": "string",
          "name": "dbThreadID",
          "type": "string"
        },
        {
          "indexed": false,
          "internalType": "uint256",
          "name": "appID",
          "type": "uint256"
        },
        {
          "indexed": false,
          "internalType": "uint256",
          "name": "createdAt",
          "type": "uint256"
        },
        {
          "indexed": false,
          "internalType": "address",
          "name": "createdBy",
          "type": "address"
        },
        {
          "indexed": false,
          "internalType": "uint256",
          "name": "portalId",
          "type": "uint256"
        }
      ],
      "name": "PortalCreated",
      "type": "event"
    },
    {
      "anonymous": false,
      "inputs": [
        {
          "indexed": false,
          "internalType": "uint256",
          "name": "portalId",
          "type": "uint256"
        },
        {
          "indexed": false,
          "internalType": "address",
          "name": "joiner",
          "type": "address"
        }
      ],
      "name": "PortalJoined",
      "type": "event"
    },
    {
      "anonymous": false,
      "inputs": [
        {
          "indexed": false,
          "internalType": "uint256",
          "name": "portalId",
          "type": "uint256"
        },
        {
          "indexed": false,
          "internalType": "address",
          "name": "claimer",
          "type": "address"
        },
        {
          "indexed": false,
          "internalType": "uint256",
          "name": "amount",
          "type": "uint256"
        }
      ],
      "name": "PortalXPClaimed",
      "type": "event"
    },
    {
      "anonymous": false,
      "inputs": [
        {
          "indexed": false,
          "internalType": "uint256",
          "name": "portalId",
          "type": "uint256"
        },
        {
          "indexed": false,
          "internalType": "address",
          "name": "staker",
          "type": "address"
        },
        {
          "indexed": false,
          "internalType": "uint256",
          "name": "amount",
          "type": "uint256"
        },
        {
          "indexed": false,
          "internalType": "uint256",
          "name": "timestamp",
          "type": "uint256"
        }
      ],
      "name": "Staked",
      "type": "event"
    },
    {
      "inputs": [
        {
          "internalType": "uint256",
          "name": "tokenId",
          "type": "uint256"
        }
      ],
      "name": "buyNft",
      "outputs": [],
      "stateMutability": "nonpayable",
      "type": "function"
    },
    {
      "inputs": [
        {
          "internalType": "uint256",
          "name": "_portalId",
          "type": "uint256"
        }
      ],
      "name": "claimRewards",
      "outputs": [],
      "stateMutability": "nonpayable",
      "type": "function"
    },
    {
      "inputs": [
        {
          "internalType": "uint256",
          "name": "_portalId",
          "type": "uint256"
        },
        {
          "internalType": "uint256",
          "name": "_amount",
          "type": "uint256"
        }
      ],
      "name": "claimXpToken",
      "outputs": [],
      "stateMutability": "nonpayable",
      "type": "function"
    },
    {
      "inputs": [
        {
          "internalType": "string",
          "name": "_dbThreadID",
          "type": "string"
        },
        {
          "internalType": "uint256",
          "name": "_appID",
          "type": "uint256"
        }
      ],
      "name": "createPortal",
      "outputs": [],
      "stateMutability": "nonpayable",
      "type": "function"
    },
    {
      "inputs": [
        {
          "internalType": "uint256",
          "name": "_portalId",
          "type": "uint256"
        }
      ],
      "name": "joinPortal",
      "outputs": [],
      "stateMutability": "nonpayable",
      "type": "function"
    },
    {
      "inputs": [
        {
          "internalType": "uint256",
          "name": "_portalId",
          "type": "uint256"
        },
        {
          "internalType": "string",
          "name": "_tokenURI",
          "type": "string"
        }
      ],
      "name": "mintToken",
      "outputs": [],
      "stateMutability": "nonpayable",
      "type": "function"
    },
    {
      "inputs": [
        {
          "internalType": "address",
          "name": "_triggerTokenAddress",
          "type": "address"
        },
        {
          "internalType": "address",
          "name": "_triggerXpTokenAddress",
          "type": "address"
        },
        {
          "internalType": "address",
          "name": "_triggerNFTokenAddress",
          "type": "address"
        }
      ],
      "name": "setFactoryAddresses",
      "outputs": [],
      "stateMutability": "nonpayable",
      "type": "function"
    },
    {
      "inputs": [
        {
          "internalType": "uint256",
          "name": "_portalId",
          "type": "uint256"
        },
        {
          "internalType": "uint256",
          "name": "_amount",
          "type": "uint256"
        }
      ],
      "name": "stake",
      "outputs": [],
      "stateMutability": "nonpayable",
      "type": "function"
    },
    {
      "inputs": [
        {
          "internalType": "uint256",
          "name": "price",
          "type": "uint256"
        },
        {
          "internalType": "uint256",
          "name": "tokenId",
          "type": "uint256"
        }
      ],
      "name": "toggleSale",
      "outputs": [],
      "stateMutability": "nonpayable",
      "type": "function"
    },
    {
      "inputs": [],
      "name": "triggerNFTtokenFactory",
      "outputs": [
        {
          "internalType": "contract IERC721",
          "name": "",
          "type": "address"
        }
      ],
      "stateMutability": "view",
      "type": "function"
    },
    {
      "inputs": [],
      "name": "triggerTokenFactory",
      "outputs": [
        {
          "internalType": "contract IERC20",
          "name": "",
          "type": "address"
        }
      ],
      "stateMutability": "view",
      "type": "function"
    },
    {
      "inputs": [],
      "name": "triggerXpTokenFactory",
      "outputs": [
        {
          "internalType": "contract IERC20",
          "name": "",
          "type": "address"
        }
      ],
      "stateMutability": "view",
      "type": "function"
    },
    {
      "inputs": [
        {
          "internalType": "uint256",
          "name": "price",
          "type": "uint256"
        },
        {
          "internalType": "uint256",
          "name": "tokenId",
          "type": "uint256"
        }
      ],
      "name": "updateListingPrice",
      "outputs": [],
      "stateMutability": "nonpayable",
      "type": "function"
    },
    {
      "inputs": [
        {
          "internalType": "uint256",
          "name": "_portalId",
          "type": "uint256"
        }
      ],
      "name": "withdraw",
      "outputs": [],
      "stateMutability": "nonpayable",
      "type": "function"
    }
  ],
  "bytecode": "0x60806040526001600555600160065534801561001a57600080fd5b5033600460006101000a81548173ffffffffffffffffffffffffffffffffffffffff021916908373ffffffffffffffffffffffffffffffffffffffff1602179055506128ad8061006b6000396000f3fe608060405234801561001057600080fd5b50600436106100ea5760003560e01c80639812cc031161008c578063ba89c91611610066578063ba89c9161461020b578063c1b6371314610227578063c460494314610245578063de27d2e714610261576100ea565b80639812cc03146101b357806399d8ea69146101d1578063af7c0366146101ed576100ea565b80635c3c796d116100c85780635c3c796d146101435780636f0393051461015f578063752312a91461017b5780637b0472f014610197576100ea565b80630962ef79146100ef578063243adbdd1461010b5780632e1a7d4d14610127575b600080fd5b61010960048036038101906101049190611cb0565b61027d565b005b61012560048036038101906101209190611cb0565b610280565b005b610141600480360381019061013c9190611cb0565b610581565b005b61015d60048036038101906101589190611d56565b610af6565b005b61017960048036038101906101749190611d56565b610b89565b005b61019560048036038101906101909190611d02565b610f99565b005b6101b160048036038101906101ac9190611d56565b611177565b005b6101bb6114fd565b6040516101c89190612004565b60405180910390f35b6101eb60048036038101906101e69190611cb0565b611523565b005b6101f56115c8565b604051610202919061201f565b60405180910390f35b61022560048036038101906102209190611b2e565b6115ee565b005b61022f611746565b60405161023c9190612004565b60405180910390f35b61025f600480360381019061025a9190611d56565b61176c565b005b61027b60048036038101906102769190611ba6565b6117ff565b005b50565b6000806000806000806000600360009054906101000a900473ffffffffffffffffffffffffffffffffffffffff1673ffffffffffffffffffffffffffffffffffffffff1663ba9a35cd896040518263ffffffff1660e01b81526004016102e691906121e4565b60006040518083038186803b1580156102fe57600080fd5b505afa158015610312573d6000803e3d6000fd5b505050506040513d6000823e3d601f19601f8201168201806040525081019061033b9190611bfa565b965096509650965096509650965080600160009054906101000a900473ffffffffffffffffffffffffffffffffffffffff1673ffffffffffffffffffffffffffffffffffffffff1663dd62ed3e33306040518363ffffffff1660e01b81526004016103a7929190611f7b565b60206040518083038186803b1580156103bf57600080fd5b505afa1580156103d3573d6000803e3d6000fd5b505050506040513d601f19601f820116820180604052508101906103f79190611cd9565b1015610438576040517f08c379a000000000000000000000000000000000000000000000000000000000815260040161042f906121c4565b60405180910390fd5b600360009054906101000a900473ffffffffffffffffffffffffffffffffffffffff1673ffffffffffffffffffffffffffffffffffffffff1663249e10c5896040518263ffffffff1660e01b815260040161049391906121e4565b600060405180830381600087803b1580156104ad57600080fd5b505af11580156104c1573d6000803e3d6000fd5b50505050600160009054906101000a900473ffffffffffffffffffffffffffffffffffffffff1673ffffffffffffffffffffffffffffffffffffffff166323b872dd3386846040518463ffffffff1660e01b815260040161052493929190611fa4565b602060405180830381600087803b15801561053e57600080fd5b505af1158015610552573d6000803e3d6000fd5b505050506040513d601f19601f820116820180604052508101906105769190611b7d565b505050505050505050565b80600115156009600083815260200190815260200160002060003373ffffffffffffffffffffffffffffffffffffffff1673ffffffffffffffffffffffffffffffffffffffff16815260200190815260200160002060009054906101000a900460ff16151514610626576040517f08c379a000000000000000000000000000000000000000000000000000000000815260040161061d906120c4565b60405180910390fd5b60008060005b600c6000868152602001908152602001600020805490508110156107cc573373ffffffffffffffffffffffffffffffffffffffff16600c600087815260200190815260200160002082815481106106ac577f4e487b7100000000000000000000000000000000000000000000000000000000600052603260045260246000fd5b906000526020600020906003020160000160009054906101000a900473ffffffffffffffffffffffffffffffffffffffff1673ffffffffffffffffffffffffffffffffffffffff1614156107b957600c60008681526020019081526020016000208181548110610745577f4e487b7100000000000000000000000000000000000000000000000000000000600052603260045260246000fd5b9060005260206000209060030201600101549250600c600086815260200190815260200160002081815481106107a4577f4e487b7100000000000000000000000000000000000000000000000000000000600052603260045260246000fd5b90600052602060002090600302016002015491505b80806107c4906125da565b91505061062c565b5060008211610810576040517f08c379a000000000000000000000000000000000000000000000000000000000815260040161080790612184565b60405180910390fd5b6005548161081e9190612409565b421161085f576040517f08c379a000000000000000000000000000000000000000000000000000000000815260040161085690612144565b60405180910390fd5b600260009054906101000a900473ffffffffffffffffffffffffffffffffffffffff1673ffffffffffffffffffffffffffffffffffffffff1663a9059cbb33846040518363ffffffff1660e01b81526004016108bc929190611fdb565b602060405180830381600087803b1580156108d657600080fd5b505af11580156108ea573d6000803e3d6000fd5b505050506040513d601f19601f8201168201806040525081019061090e9190611b7d565b5060005b600c600086815260200190815260200160002080549050811015610a87573373ffffffffffffffffffffffffffffffffffffffff16600c60008781526020019081526020016000208281548110610992577f4e487b7100000000000000000000000000000000000000000000000000000000600052603260045260246000fd5b906000526020600020906003020160000160009054906101000a900473ffffffffffffffffffffffffffffffffffffffff1673ffffffffffffffffffffffffffffffffffffffff161415610a7457600c60008681526020019081526020016000208181548110610a2b577f4e487b7100000000000000000000000000000000000000000000000000000000600052603260045260246000fd5b9060005260206000209060030201600080820160006101000a81549073ffffffffffffffffffffffffffffffffffffffff02191690556001820160009055600282016000905550505b8080610a7f906125da565b915050610912565b5081600d60008681526020019081526020016000206000828254610aab919061245f565b925050819055507f17700ceb1658b18206f427c1578048e87504106b14ec69e9b4586d9a95174a328433600080604051610ae89493929190612228565b60405180910390a150505050565b600360009054906101000a900473ffffffffffffffffffffffffffffffffffffffff1673ffffffffffffffffffffffffffffffffffffffff16635c3c796d83836040518363ffffffff1660e01b8152600401610b539291906122e9565b600060405180830381600087803b158015610b6d57600080fd5b505af1158015610b81573d6000803e3d6000fd5b505050505050565b81600115156009600083815260200190815260200160002060003373ffffffffffffffffffffffffffffffffffffffff1673ffffffffffffffffffffffffffffffffffffffff16815260200190815260200160002060009054906101000a900460ff16151514610c2e576040517f08c379a0000000000000000000000000000000000000000000000000000000008152600401610c25906120c4565b60405180910390fd5b6000600260009054906101000a900473ffffffffffffffffffffffffffffffffffffffff1673ffffffffffffffffffffffffffffffffffffffff166370a08231306040518263ffffffff1660e01b8152600401610c8b9190611f60565b60206040518083038186803b158015610ca357600080fd5b505afa158015610cb7573d6000803e3d6000fd5b505050506040513d601f19601f82011682018060405250810190610cdb9190611cd9565b90506000600b600086815260200190815260200160002060003373ffffffffffffffffffffffffffffffffffffffff1673ffffffffffffffffffffffffffffffffffffffff16815260200190815260200160002054905060008411610d75576040517f08c379a0000000000000000000000000000000000000000000000000000000008152600401610d6c906120e4565b60405180910390fd5b6000811115610db9576040517f08c379a0000000000000000000000000000000000000000000000000000000008152600401610db090612104565b60405180910390fd5b81841115610dfc576040517f08c379a0000000000000000000000000000000000000000000000000000000008152600401610df3906121a4565b60405180910390fd5b6000600260009054906101000a900473ffffffffffffffffffffffffffffffffffffffff1673ffffffffffffffffffffffffffffffffffffffff1663a9059cbb33876040518363ffffffff1660e01b8152600401610e5b929190611fdb565b602060405180830381600087803b158015610e7557600080fd5b505af1158015610e89573d6000803e3d6000fd5b505050506040513d601f19601f82011682018060405250810190610ead9190611b7d565b905080610eef576040517f08c379a0000000000000000000000000000000000000000000000000000000008152600401610ee690612124565b60405180910390fd5b84600b600088815260200190815260200160002060003373ffffffffffffffffffffffffffffffffffffffff1673ffffffffffffffffffffffffffffffffffffffff1681526020019081526020016000206000828254610f4f9190612409565b925050819055507fd5d662d8a3f02d24c0d35ea90214cabdb0478c52400cd3608f713525add3fd3f863387604051610f899392919061226d565b60405180910390a1505050505050565b81600115156009600083815260200190815260200160002060003373ffffffffffffffffffffffffffffffffffffffff1673ffffffffffffffffffffffffffffffffffffffff16815260200190815260200160002060009054906101000a900460ff1615151461103e576040517f08c379a0000000000000000000000000000000000000000000000000000000008152600401611035906120c4565b60405180910390fd5b6000600360009054906101000a900473ffffffffffffffffffffffffffffffffffffffff1673ffffffffffffffffffffffffffffffffffffffff1663c046372c84866040518363ffffffff1660e01b815260040161109d92919061203a565b602060405180830381600087803b1580156110b757600080fd5b505af11580156110cb573d6000803e3d6000fd5b505050506040513d601f19601f820116820180604052508101906110ef9190611cd9565b9050600a60008581526020019081526020016000208190806001815401808255809150506001900390600052602060002001600090919091909150557f6360c0331f1ee58346501ff2d31b6700442be8ad4863effec2aa56d481717541848285333333600080604051611169989796959493929190612312565b60405180910390a150505050565b81600115156009600083815260200190815260200160002060003373ffffffffffffffffffffffffffffffffffffffff1673ffffffffffffffffffffffffffffffffffffffff16815260200190815260200160002060009054906101000a900460ff1615151461121c576040517f08c379a0000000000000000000000000000000000000000000000000000000008152600401611213906120c4565b60405180910390fd5b81600260009054906101000a900473ffffffffffffffffffffffffffffffffffffffff1673ffffffffffffffffffffffffffffffffffffffff1663dd62ed3e33306040518363ffffffff1660e01b815260040161127a929190611f7b565b60206040518083038186803b15801561129257600080fd5b505afa1580156112a6573d6000803e3d6000fd5b505050506040513d601f19601f820116820180604052508101906112ca9190611cd9565b101561130b576040517f08c379a0000000000000000000000000000000000000000000000000000000008152600401611302906121c4565b60405180910390fd5b600260009054906101000a900473ffffffffffffffffffffffffffffffffffffffff1673ffffffffffffffffffffffffffffffffffffffff166323b872dd3330856040518463ffffffff1660e01b815260040161136a93929190611fa4565b602060405180830381600087803b15801561138457600080fd5b505af1158015611398573d6000803e3d6000fd5b505050506040513d601f19601f820116820180604052508101906113bc9190611b7d565b50600060405180606001604052803373ffffffffffffffffffffffffffffffffffffffff168152602001848152602001428152509050600c600085815260200190815260200160002081908060018154018082558091505060019003906000526020600020906003020160009091909190915060008201518160000160006101000a81548173ffffffffffffffffffffffffffffffffffffffff021916908373ffffffffffffffffffffffffffffffffffffffff1602179055506020820151816001015560408201518160020155505082600d600086815260200190815260200160002060008282546114af9190612409565b925050819055507f17700ceb1658b18206f427c1578048e87504106b14ec69e9b4586d9a95174a3284338584604001516040516114ef94939291906122a4565b60405180910390a150505050565b600160009054906101000a900473ffffffffffffffffffffffffffffffffffffffff1681565b60016009600083815260200190815260200160002060003373ffffffffffffffffffffffffffffffffffffffff1673ffffffffffffffffffffffffffffffffffffffff16815260200190815260200160002060006101000a81548160ff0219169083151502179055507f4df3f388017aea7c6eb201cafda569f9a566e4f75413197890aeb242e04b26b381336040516115bd9291906121ff565b60405180910390a150565b600360009054906101000a900473ffffffffffffffffffffffffffffffffffffffff1681565b600460009054906101000a900473ffffffffffffffffffffffffffffffffffffffff1673ffffffffffffffffffffffffffffffffffffffff163373ffffffffffffffffffffffffffffffffffffffff161461167e576040517f08c379a000000000000000000000000000000000000000000000000000000000815260040161167590612164565b60405180910390fd5b82600160006101000a81548173ffffffffffffffffffffffffffffffffffffffff021916908373ffffffffffffffffffffffffffffffffffffffff16021790555081600260006101000a81548173ffffffffffffffffffffffffffffffffffffffff021916908373ffffffffffffffffffffffffffffffffffffffff16021790555080600360006101000a81548173ffffffffffffffffffffffffffffffffffffffff021916908373ffffffffffffffffffffffffffffffffffffffff160217905550505050565b600260009054906101000a900473ffffffffffffffffffffffffffffffffffffffff1681565b600360009054906101000a900473ffffffffffffffffffffffffffffffffffffffff1673ffffffffffffffffffffffffffffffffffffffff1663c460494383836040518363ffffffff1660e01b81526004016117c99291906122e9565b600060405180830381600087803b1580156117e357600080fd5b505af11580156117f7573d6000803e3d6000fd5b505050505050565b611809600061192e565b60006118156000611944565b9050600060405180608001604052808581526020013373ffffffffffffffffffffffffffffffffffffffff16815260200184815260200142815250905080600860008481526020019081526020016000206000820151816000019080519060200190611882929190611952565b5060208201518160010160006101000a81548173ffffffffffffffffffffffffffffffffffffffff021916908373ffffffffffffffffffffffffffffffffffffffff16021790555060408201518160020155606082015181600301559050507f6df02dfcb99755e8386e24285cab653ac53b4e7a9b7f8c831be73b2028fcea618484836060015184602001518660405161192095949392919061206a565b60405180910390a150505050565b6001816000016000828254019250508190555050565b600081600001549050919050565b82805461195e90612577565b90600052602060002090601f01602090048101928261198057600085556119c7565b82601f1061199957805160ff19168380011785556119c7565b828001600101855582156119c7579182015b828111156119c65782518255916020019190600101906119ab565b5b5090506119d491906119d8565b5090565b5b808211156119f15760008160009055506001016119d9565b5090565b6000611a08611a03846123bc565b612397565b905082815260208101848484011115611a2057600080fd5b611a2b848285612535565b509392505050565b6000611a46611a41846123bc565b612397565b905082815260208101848484011115611a5e57600080fd5b611a69848285612544565b509392505050565b600081359050611a8081612832565b92915050565b600081519050611a9581612832565b92915050565b600081519050611aaa81612849565b92915050565b600082601f830112611ac157600080fd5b8135611ad18482602086016119f5565b91505092915050565b600082601f830112611aeb57600080fd5b8151611afb848260208601611a33565b91505092915050565b600081359050611b1381612860565b92915050565b600081519050611b2881612860565b92915050565b600080600060608486031215611b4357600080fd5b6000611b5186828701611a71565b9350506020611b6286828701611a71565b9250506040611b7386828701611a71565b9150509250925092565b600060208284031215611b8f57600080fd5b6000611b9d84828501611a9b565b91505092915050565b60008060408385031215611bb957600080fd5b600083013567ffffffffffffffff811115611bd357600080fd5b611bdf85828601611ab0565b9250506020611bf085828601611b04565b9150509250929050565b600080600080600080600060e0888a031215611c1557600080fd5b600088015167ffffffffffffffff811115611c2f57600080fd5b611c3b8a828b01611ada565b9750506020611c4c8a828b01611b19565b9650506040611c5d8a828b01611a86565b9550506060611c6e8a828b01611a86565b9450506080611c7f8a828b01611a86565b93505060a0611c908a828b01611a9b565b92505060c0611ca18a828b01611b19565b91505092959891949750929550565b600060208284031215611cc257600080fd5b6000611cd084828501611b04565b91505092915050565b600060208284031215611ceb57600080fd5b6000611cf984828501611b19565b91505092915050565b60008060408385031215611d1557600080fd5b6000611d2385828601611b04565b925050602083013567ffffffffffffffff811115611d4057600080fd5b611d4c85828601611ab0565b9150509250929050565b60008060408385031215611d6957600080fd5b6000611d7785828601611b04565b9250506020611d8885828601611b04565b9150509250929050565b611d9b81612493565b82525050565b611daa816124a5565b82525050565b611db9816124db565b82525050565b611dc8816124ff565b82525050565b611dd781612523565b82525050565b6000611de8826123ed565b611df281856123f8565b9350611e02818560208601612544565b611e0b816126b0565b840191505092915050565b6000611e236011836123f8565b9150611e2e826126c1565b602082019050919050565b6000611e46600e836123f8565b9150611e51826126ea565b602082019050919050565b6000611e696018836123f8565b9150611e7482612713565b602082019050919050565b6000611e8c6012836123f8565b9150611e978261273c565b602082019050919050565b6000611eaf601b836123f8565b9150611eba82612765565b602082019050919050565b6000611ed26009836123f8565b9150611edd8261278e565b602082019050919050565b6000611ef56010836123f8565b9150611f00826127b7565b602082019050919050565b6000611f186020836123f8565b9150611f23826127e0565b602082019050919050565b6000611f3b6014836123f8565b9150611f4682612809565b602082019050919050565b611f5a816124d1565b82525050565b6000602082019050611f756000830184611d92565b92915050565b6000604082019050611f906000830185611d92565b611f9d6020830184611d92565b9392505050565b6000606082019050611fb96000830186611d92565b611fc66020830185611d92565b611fd36040830184611f51565b949350505050565b6000604082019050611ff06000830185611d92565b611ffd6020830184611f51565b9392505050565b60006020820190506120196000830184611db0565b92915050565b60006020820190506120346000830184611dbf565b92915050565b600060408201905081810360008301526120548185611ddd565b90506120636020830184611f51565b9392505050565b600060a08201905081810360008301526120848188611ddd565b90506120936020830187611f51565b6120a06040830186611f51565b6120ad6060830185611d92565b6120ba6080830184611f51565b9695505050505050565b600060208201905081810360008301526120dd81611e16565b9050919050565b600060208201905081810360008301526120fd81611e39565b9050919050565b6000602082019050818103600083015261211d81611e5c565b9050919050565b6000602082019050818103600083015261213d81611e7f565b9050919050565b6000602082019050818103600083015261215d81611ea2565b9050919050565b6000602082019050818103600083015261217d81611ec5565b9050919050565b6000602082019050818103600083015261219d81611ee8565b9050919050565b600060208201905081810360008301526121bd81611f0b565b9050919050565b600060208201905081810360008301526121dd81611f2e565b9050919050565b60006020820190506121f96000830184611f51565b92915050565b60006040820190506122146000830185611f51565b6122216020830184611d92565b9392505050565b600060808201905061223d6000830187611f51565b61224a6020830186611d92565b6122576040830185611dce565b6122646060830184611dce565b95945050505050565b60006060820190506122826000830186611f51565b61228f6020830185611d92565b61229c6040830184611f51565b949350505050565b60006080820190506122b96000830187611f51565b6122c66020830186611d92565b6122d36040830185611f51565b6122e06060830184611f51565b95945050505050565b60006040820190506122fe6000830185611f51565b61230b6020830184611f51565b9392505050565b600061010082019050612328600083018b611f51565b612335602083018a611f51565b81810360408301526123478189611ddd565b90506123566060830188611d92565b6123636080830187611d92565b61237060a0830186611d92565b61237d60c0830185611da1565b61238a60e0830184611dce565b9998505050505050505050565b60006123a16123b2565b90506123ad82826125a9565b919050565b6000604051905090565b600067ffffffffffffffff8211156123d7576123d6612681565b5b6123e0826126b0565b9050602081019050919050565b600081519050919050565b600082825260208201905092915050565b6000612414826124d1565b915061241f836124d1565b9250827fffffffffffffffffffffffffffffffffffffffffffffffffffffffffffffffff0382111561245457612453612623565b5b828201905092915050565b600061246a826124d1565b9150612475836124d1565b92508282101561248857612487612623565b5b828203905092915050565b600061249e826124b1565b9050919050565b60008115159050919050565b600073ffffffffffffffffffffffffffffffffffffffff82169050919050565b6000819050919050565b60006124e6826124ed565b9050919050565b60006124f8826124b1565b9050919050565b600061250a82612511565b9050919050565b600061251c826124b1565b9050919050565b600061252e826124d1565b9050919050565b82818337600083830152505050565b60005b83811015612562578082015181840152602081019050612547565b83811115612571576000848401525b50505050565b6000600282049050600182168061258f57607f821691505b602082108114156125a3576125a2612652565b5b50919050565b6125b2826126b0565b810181811067ffffffffffffffff821117156125d1576125d0612681565b5b80604052505050565b60006125e5826124d1565b91507fffffffffffffffffffffffffffffffffffffffffffffffffffffffffffffffff82141561261857612617612623565b5b600182019050919050565b7f4e487b7100000000000000000000000000000000000000000000000000000000600052601160045260246000fd5b7f4e487b7100000000000000000000000000000000000000000000000000000000600052602260045260246000fd5b7f4e487b7100000000000000000000000000000000000000000000000000000000600052604160045260246000fd5b6000601f19601f8301169050919050565b7f506f7274616c206e6f74206a6f696e6564000000000000000000000000000000600082015250565b7f496e76616c696420416d6f756e74000000000000000000000000000000000000600082015250565b7f585020546f6b656e20616c726561647920636c61696d65640000000000000000600082015250565b7f4661696c656420746f207472616e736665720000000000000000000000000000600082015250565b7f6c6f636b696e20706572696f6420686173206e6f7420656e6465640000000000600082015250565b7f4e6f74206f776e65720000000000000000000000000000000000000000000000600082015250565b7f4e6f20616d6f756e74207374616b656400000000000000000000000000000000600082015250565b7f4e6f7420656e6f75676820746f6b656e7320696e207468652072657365727665600082015250565b7f706c6561736520617070726f766520746f6b656e000000000000000000000000600082015250565b61283b81612493565b811461284657600080fd5b50565b612852816124a5565b811461285d57600080fd5b50565b612869816124d1565b811461287457600080fd5b5056fea2646970667358221220065d20f540c8dfbf994bd2c093ee38d3c280c9c60f6465055317238a6371986e64736f6c63430008040033",
  "linkReferences": {},
  "deployedLinkReferences": {}
}